{
	"src/NEXEngine.sol": {
		"NEXEngine": {
			"abi": [
				{
					"inputs": [
						{
							"internalType": "address",
							"name": "_colletral",
							"type": "address"
						},
						{
							"internalType": "address",
							"name": "_priceFeed",
							"type": "address"
						},
						{
							"internalType": "address",
							"name": "_stableCoin",
							"type": "address"
						}
					],
					"stateMutability": "nonpayable",
					"type": "constructor"
				},
				{
					"inputs": [],
					"name": "NEXEngine_ColletralNotAllowed",
					"type": "error"
				},
				{
					"inputs": [],
					"name": "NEXEngine_DepositeFailed",
					"type": "error"
				},
				{
					"inputs": [],
					"name": "NEXEngine_NeedsMoreThanZero",
					"type": "error"
				},
				{
					"inputs": [],
					"name": "NEXEngine_RedeemFailed",
					"type": "error"
				},
				{
					"inputs": [],
					"name": "NEXEngine_burnFailed",
					"type": "error"
				},
				{
					"anonymous": false,
					"inputs": [
						{
							"indexed": true,
							"internalType": "address",
							"name": "user",
							"type": "address"
						},
						{
							"indexed": true,
							"internalType": "address",
							"name": "colletral",
							"type": "address"
						},
						{
							"indexed": false,
							"internalType": "uint256",
							"name": "amount",
							"type": "uint256"
						}
					],
					"name": "DepositeColletral",
					"type": "event"
				},
				{
					"inputs": [
						{
							"internalType": "address",
							"name": "tokenCollateralAddress",
							"type": "address"
						},
						{
							"internalType": "uint256",
							"name": "amountCollateral",
							"type": "uint256"
						},
						{
							"internalType": "uint256",
							"name": "amountNexToMint",
							"type": "uint256"
						}
					],
					"name": "depositeColletralMintNEX",
					"outputs": [],
					"stateMutability": "nonpayable",
					"type": "function"
				},
				{
					"inputs": [],
					"name": "getHealthFactor",
					"outputs": [],
					"stateMutability": "nonpayable",
					"type": "function"
				},
				{
					"inputs": [],
					"name": "liquidate",
					"outputs": [],
					"stateMutability": "nonpayable",
					"type": "function"
				},
				{
					"inputs": [
						{
							"internalType": "address",
							"name": "tokenCollateralAddress",
							"type": "address"
						},
						{
							"internalType": "uint256",
							"name": "amountCollateral",
							"type": "uint256"
						}
					],
					"name": "redeemCollectral",
					"outputs": [],
					"stateMutability": "nonpayable",
					"type": "function"
				},
				{
					"inputs": [
						{
							"internalType": "address",
							"name": "tokenCollateralAddress",
							"type": "address"
						},
						{
							"internalType": "uint256",
							"name": "collateralAmount",
							"type": "uint256"
						},
						{
							"internalType": "uint256",
							"name": "nexAmount",
							"type": "uint256"
						}
					],
					"name": "redeemColletralForNex",
					"outputs": [],
					"stateMutability": "nonpayable",
					"type": "function"
				}
			],
			"devdoc": {
				"author": ": 0xminer11 NEX is a decentralized stable coin that is pegged to the US Dollar. This contract will handle the minting and burning of the NEX token.",
				"kind": "dev",
				"methods": {},
				"version": 1
			},
			"evm": {
				"assembly": "    /* \"src/NEXEngine.sol\":465:4491  contract NEXEngine is ReentrancyGuard {... */\n  mstore(0x40, 0xa0)\n    /* \"src/NEXEngine.sol\":1825:1984  constructor(address _colletral, address _priceFeed, address _stableCoin) {... */\n  callvalue\n  dup1\n  iszero\n  tag_1\n  jumpi\n  revert(0x00, 0x00)\ntag_1:\n  pop\n  mload(0x40)\n  sub(codesize, bytecodeSize)\n  dup1\n  bytecodeSize\n  dup4\n  codecopy\n  dup2\n  dup2\n  add\n  0x40\n  mstore\n  dup2\n  add\n  swap1\n  tag_2\n  swap2\n  swap1\n  tag_3\n  jump\t// in\ntag_2:\n    /* \"@openzeppelin/contracts/security/ReentrancyGuard.sol\":1716:1717  1 */\n  0x01\n    /* \"@openzeppelin/contracts/security/ReentrancyGuard.sol\":1821:1828  _status */\n  0x00\n    /* \"@openzeppelin/contracts/security/ReentrancyGuard.sol\":1821:1843  _status = _NOT_ENTERED */\n  dup2\n  swap1\n  sstore\n  pop\n    /* \"src/NEXEngine.sol\":1934:1944  _priceFeed */\n  dup2\n    /* \"src/NEXEngine.sol\":1908:1919  _priceFeeds */\n  0x01\n    /* \"src/NEXEngine.sol\":1908:1931  _priceFeeds[_colletral] */\n  0x00\n    /* \"src/NEXEngine.sol\":1920:1930  _colletral */\n  dup6\n    /* \"src/NEXEngine.sol\":1908:1931  _priceFeeds[_colletral] */\n  0xffffffffffffffffffffffffffffffffffffffff\n  and\n  0xffffffffffffffffffffffffffffffffffffffff\n  and\n  dup2\n  mstore\n  0x20\n  add\n  swap1\n  dup2\n  mstore\n  0x20\n  add\n  0x00\n  keccak256\n  0x00\n    /* \"src/NEXEngine.sol\":1908:1944  _priceFeeds[_colletral] = _priceFeed */\n  0x0100\n  exp\n  dup2\n  sload\n  dup2\n  0xffffffffffffffffffffffffffffffffffffffff\n  mul\n  not\n  and\n  swap1\n  dup4\n  0xffffffffffffffffffffffffffffffffffffffff\n  and\n  mul\n  or\n  swap1\n  sstore\n  pop\n    /* \"src/NEXEngine.sol\":1965:1976  _stableCoin */\n  dup1\n    /* \"src/NEXEngine.sol\":1954:1977  _nex = NEX(_stableCoin) */\n  0xffffffffffffffffffffffffffffffffffffffff\n  and\n  0x80\n  dup2\n  0xffffffffffffffffffffffffffffffffffffffff\n  and\n  dup2\n  mstore\n  pop\n  pop\n    /* \"src/NEXEngine.sol\":1825:1984  constructor(address _colletral, address _priceFeed, address _stableCoin) {... */\n  pop\n  pop\n  pop\n    /* \"src/NEXEngine.sol\":465:4491  contract NEXEngine is ReentrancyGuard {... */\n  jump(tag_8)\n    /* \"#utility.yul\":88:205   */\ntag_10:\n    /* \"#utility.yul\":197:198   */\n  0x00\n    /* \"#utility.yul\":194:195   */\n  0x00\n    /* \"#utility.yul\":187:199   */\n  revert\n    /* \"#utility.yul\":334:460   */\ntag_12:\n    /* \"#utility.yul\":371:378   */\n  0x00\n    /* \"#utility.yul\":411:453   */\n  0xffffffffffffffffffffffffffffffffffffffff\n    /* \"#utility.yul\":404:409   */\n  dup3\n    /* \"#utility.yul\":400:454   */\n  and\n    /* \"#utility.yul\":389:454   */\n  swap1\n  pop\n    /* \"#utility.yul\":334:460   */\n  swap2\n  swap1\n  pop\n  jump\t// out\n    /* \"#utility.yul\":466:562   */\ntag_13:\n    /* \"#utility.yul\":503:510   */\n  0x00\n    /* \"#utility.yul\":532:556   */\n  tag_22\n    /* \"#utility.yul\":550:555   */\n  dup3\n    /* \"#utility.yul\":532:556   */\n  tag_12\n  jump\t// in\ntag_22:\n    /* \"#utility.yul\":521:556   */\n  swap1\n  pop\n    /* \"#utility.yul\":466:562   */\n  swap2\n  swap1\n  pop\n  jump\t// out\n    /* \"#utility.yul\":568:690   */\ntag_14:\n    /* \"#utility.yul\":641:665   */\n  tag_24\n    /* \"#utility.yul\":659:664   */\n  dup2\n    /* \"#utility.yul\":641:665   */\n  tag_13\n  jump\t// in\ntag_24:\n    /* \"#utility.yul\":634:639   */\n  dup2\n    /* \"#utility.yul\":631:666   */\n  eq\n    /* \"#utility.yul\":621:684   */\n  tag_25\n  jumpi\n    /* \"#utility.yul\":680:681   */\n  0x00\n    /* \"#utility.yul\":677:678   */\n  0x00\n    /* \"#utility.yul\":670:682   */\n  revert\n    /* \"#utility.yul\":621:684   */\ntag_25:\n    /* \"#utility.yul\":568:690   */\n  pop\n  jump\t// out\n    /* \"#utility.yul\":696:839   */\ntag_15:\n    /* \"#utility.yul\":753:758   */\n  0x00\n    /* \"#utility.yul\":784:790   */\n  dup2\n    /* \"#utility.yul\":778:791   */\n  mload\n    /* \"#utility.yul\":769:791   */\n  swap1\n  pop\n    /* \"#utility.yul\":800:833   */\n  tag_27\n    /* \"#utility.yul\":827:832   */\n  dup2\n    /* \"#utility.yul\":800:833   */\n  tag_14\n  jump\t// in\ntag_27:\n    /* \"#utility.yul\":696:839   */\n  swap3\n  swap2\n  pop\n  pop\n  jump\t// out\n    /* \"#utility.yul\":845:1508   */\ntag_3:\n    /* \"#utility.yul\":933:939   */\n  0x00\n    /* \"#utility.yul\":941:947   */\n  0x00\n    /* \"#utility.yul\":949:955   */\n  0x00\n    /* \"#utility.yul\":998:1000   */\n  0x60\n    /* \"#utility.yul\":986:995   */\n  dup5\n    /* \"#utility.yul\":977:984   */\n  dup7\n    /* \"#utility.yul\":973:996   */\n  sub\n    /* \"#utility.yul\":969:1001   */\n  slt\n    /* \"#utility.yul\":966:1085   */\n  iszero\n  tag_29\n  jumpi\n    /* \"#utility.yul\":1004:1083   */\n  tag_30\n  tag_10\n  jump\t// in\ntag_30:\n    /* \"#utility.yul\":966:1085   */\ntag_29:\n    /* \"#utility.yul\":1124:1125   */\n  0x00\n    /* \"#utility.yul\":1149:1213   */\n  tag_31\n    /* \"#utility.yul\":1205:1212   */\n  dup7\n    /* \"#utility.yul\":1196:1202   */\n  dup3\n    /* \"#utility.yul\":1185:1194   */\n  dup8\n    /* \"#utility.yul\":1181:1203   */\n  add\n    /* \"#utility.yul\":1149:1213   */\n  tag_15\n  jump\t// in\ntag_31:\n    /* \"#utility.yul\":1139:1213   */\n  swap4\n  pop\n    /* \"#utility.yul\":1095:1223   */\n  pop\n    /* \"#utility.yul\":1262:1264   */\n  0x20\n    /* \"#utility.yul\":1288:1352   */\n  tag_32\n    /* \"#utility.yul\":1344:1351   */\n  dup7\n    /* \"#utility.yul\":1335:1341   */\n  dup3\n    /* \"#utility.yul\":1324:1333   */\n  dup8\n    /* \"#utility.yul\":1320:1342   */\n  add\n    /* \"#utility.yul\":1288:1352   */\n  tag_15\n  jump\t// in\ntag_32:\n    /* \"#utility.yul\":1278:1352   */\n  swap3\n  pop\n    /* \"#utility.yul\":1233:1362   */\n  pop\n    /* \"#utility.yul\":1401:1403   */\n  0x40\n    /* \"#utility.yul\":1427:1491   */\n  tag_33\n    /* \"#utility.yul\":1483:1490   */\n  dup7\n    /* \"#utility.yul\":1474:1480   */\n  dup3\n    /* \"#utility.yul\":1463:1472   */\n  dup8\n    /* \"#utility.yul\":1459:1481   */\n  add\n    /* \"#utility.yul\":1427:1491   */\n  tag_15\n  jump\t// in\ntag_33:\n    /* \"#utility.yul\":1417:1491   */\n  swap2\n  pop\n    /* \"#utility.yul\":1372:1501   */\n  pop\n    /* \"#utility.yul\":845:1508   */\n  swap3\n  pop\n  swap3\n  pop\n  swap3\n  jump\t// out\n    /* \"src/NEXEngine.sol\":465:4491  contract NEXEngine is ReentrancyGuard {... */\ntag_8:\n  mload(0x80)\n  codecopy(0x00, dataOffset(sub_0), dataSize(sub_0))\n  0x00\n  assignImmutable(\"0x1d814fa3c8873fbda672528deddbda568ddac7b498936bbbf1a966e21ab8357e\")\n  return(0x00, dataSize(sub_0))\nstop\n\nsub_0: assembly {\n        /* \"src/NEXEngine.sol\":465:4491  contract NEXEngine is ReentrancyGuard {... */\n      mstore(0x40, 0x80)\n      callvalue\n      dup1\n      iszero\n      tag_1\n      jumpi\n      revert(0x00, 0x00)\n    tag_1:\n      pop\n      jumpi(tag_2, lt(calldatasize, 0x04))\n      shr(0xe0, calldataload(0x00))\n      dup1\n      0x28a07025\n      eq\n      tag_3\n      jumpi\n      dup1\n      0x670a14ea\n      eq\n      tag_4\n      jumpi\n      dup1\n      0x9268297f\n      eq\n      tag_5\n      jumpi\n      dup1\n      0xa5f352b7\n      eq\n      tag_6\n      jumpi\n      dup1\n      0xb91d1c91\n      eq\n      tag_7\n      jumpi\n    tag_2:\n      revert(0x00, 0x00)\n        /* \"src/NEXEngine.sol\":4079:4111  function liquidate() external {} */\n    tag_3:\n      tag_8\n      tag_9\n      jump\t// in\n    tag_8:\n      stop\n        /* \"src/NEXEngine.sol\":2921:3206  function redeemCollectral(... */\n    tag_4:\n      tag_10\n      0x04\n      dup1\n      calldatasize\n      sub\n      dup2\n      add\n      swap1\n      tag_11\n      swap2\n      swap1\n      tag_12\n      jump\t// in\n    tag_11:\n      tag_13\n      jump\t// in\n    tag_10:\n      stop\n        /* \"src/NEXEngine.sol\":2128:2411  function depositeColletralMintNEX(... */\n    tag_5:\n      tag_14\n      0x04\n      dup1\n      calldatasize\n      sub\n      dup2\n      add\n      swap1\n      tag_15\n      swap2\n      swap1\n      tag_16\n      jump\t// in\n    tag_15:\n      tag_17\n      jump\t// in\n    tag_14:\n      stop\n        /* \"src/NEXEngine.sol\":4117:4155  function getHealthFactor() external {} */\n    tag_6:\n      tag_18\n      tag_19\n      jump\t// in\n    tag_18:\n      stop\n        /* \"src/NEXEngine.sol\":3212:3499  function redeemColletralForNex(... */\n    tag_7:\n      tag_20\n      0x04\n      dup1\n      calldatasize\n      sub\n      dup2\n      add\n      swap1\n      tag_21\n      swap2\n      swap1\n      tag_16\n      jump\t// in\n    tag_21:\n      tag_22\n      jump\t// in\n    tag_20:\n      stop\n        /* \"src/NEXEngine.sol\":4079:4111  function liquidate() external {} */\n    tag_9:\n      jump\t// out\n        /* \"src/NEXEngine.sol\":2921:3206  function redeemCollectral(... */\n    tag_13:\n        /* \"@openzeppelin/contracts/security/ReentrancyGuard.sol\":2261:2282  _nonReentrantBefore() */\n      tag_25\n        /* \"@openzeppelin/contracts/security/ReentrancyGuard.sol\":2261:2280  _nonReentrantBefore */\n      tag_26\n        /* \"@openzeppelin/contracts/security/ReentrancyGuard.sol\":2261:2282  _nonReentrantBefore() */\n      jump\t// in\n    tag_25:\n        /* \"src/NEXEngine.sol\":3084:3100  amountCollateral */\n      dup1\n        /* \"src/NEXEngine.sol\":1554:1555  0 */\n      0x00\n        /* \"src/NEXEngine.sol\":1544:1550  amount */\n      dup2\n        /* \"src/NEXEngine.sol\":1544:1555  amount == 0 */\n      sub\n        /* \"src/NEXEngine.sol\":1540:1618  if (amount == 0) {... */\n      tag_28\n      jumpi\n        /* \"src/NEXEngine.sol\":1578:1607  NEXEngine_NeedsMoreThanZero() */\n      mload(0x40)\n      0x77290a1d00000000000000000000000000000000000000000000000000000000\n      dup2\n      mstore\n      0x04\n      add\n      mload(0x40)\n      dup1\n      swap2\n      sub\n      swap1\n      revert\n        /* \"src/NEXEngine.sol\":1540:1618  if (amount == 0) {... */\n    tag_28:\n        /* \"src/NEXEngine.sol\":3124:3195  _redeemCollateral(tokenCollateralAddress, amountCollateral, msg.sender) */\n      tag_30\n        /* \"src/NEXEngine.sol\":3142:3164  tokenCollateralAddress */\n      dup4\n        /* \"src/NEXEngine.sol\":3166:3182  amountCollateral */\n      dup4\n        /* \"src/NEXEngine.sol\":3184:3194  msg.sender */\n      caller\n        /* \"src/NEXEngine.sol\":3124:3141  _redeemCollateral */\n      tag_31\n        /* \"src/NEXEngine.sol\":3124:3195  _redeemCollateral(tokenCollateralAddress, amountCollateral, msg.sender) */\n      jump\t// in\n    tag_30:\n        /* \"@openzeppelin/contracts/security/ReentrancyGuard.sol\":2292:2293  _ */\n      pop\n        /* \"@openzeppelin/contracts/security/ReentrancyGuard.sol\":2303:2323  _nonReentrantAfter() */\n      tag_32\n        /* \"@openzeppelin/contracts/security/ReentrancyGuard.sol\":2303:2321  _nonReentrantAfter */\n      tag_33\n        /* \"@openzeppelin/contracts/security/ReentrancyGuard.sol\":2303:2323  _nonReentrantAfter() */\n      jump\t// in\n    tag_32:\n        /* \"src/NEXEngine.sol\":2921:3206  function redeemCollectral(... */\n      pop\n      pop\n      jump\t// out\n        /* \"src/NEXEngine.sol\":2128:2411  function depositeColletralMintNEX(... */\n    tag_17:\n        /* \"@openzeppelin/contracts/security/ReentrancyGuard.sol\":2261:2282  _nonReentrantBefore() */\n      tag_35\n        /* \"@openzeppelin/contracts/security/ReentrancyGuard.sol\":2261:2280  _nonReentrantBefore */\n      tag_26\n        /* \"@openzeppelin/contracts/security/ReentrancyGuard.sol\":2261:2282  _nonReentrantBefore() */\n      jump\t// in\n    tag_35:\n        /* \"src/NEXEngine.sol\":2306:2366  _depositeCollateral(tokenCollateralAddress,amountCollateral) */\n      tag_37\n        /* \"src/NEXEngine.sol\":2326:2348  tokenCollateralAddress */\n      dup4\n        /* \"src/NEXEngine.sol\":2349:2365  amountCollateral */\n      dup4\n        /* \"src/NEXEngine.sol\":2306:2325  _depositeCollateral */\n      tag_38\n        /* \"src/NEXEngine.sol\":2306:2366  _depositeCollateral(tokenCollateralAddress,amountCollateral) */\n      jump\t// in\n    tag_37:\n        /* \"src/NEXEngine.sol\":2380:2404  mintNEX(amountNexToMint) */\n      tag_39\n        /* \"src/NEXEngine.sol\":2388:2403  amountNexToMint */\n      dup2\n        /* \"src/NEXEngine.sol\":2380:2387  mintNEX */\n      tag_40\n        /* \"src/NEXEngine.sol\":2380:2404  mintNEX(amountNexToMint) */\n      jump\t// in\n    tag_39:\n        /* \"@openzeppelin/contracts/security/ReentrancyGuard.sol\":2303:2323  _nonReentrantAfter() */\n      tag_41\n        /* \"@openzeppelin/contracts/security/ReentrancyGuard.sol\":2303:2321  _nonReentrantAfter */\n      tag_33\n        /* \"@openzeppelin/contracts/security/ReentrancyGuard.sol\":2303:2323  _nonReentrantAfter() */\n      jump\t// in\n    tag_41:\n        /* \"src/NEXEngine.sol\":2128:2411  function depositeColletralMintNEX(... */\n      pop\n      pop\n      pop\n      jump\t// out\n        /* \"src/NEXEngine.sol\":4117:4155  function getHealthFactor() external {} */\n    tag_19:\n      jump\t// out\n        /* \"src/NEXEngine.sol\":3212:3499  function redeemColletralForNex(... */\n    tag_22:\n        /* \"src/NEXEngine.sol\":3372:3413  _burnNEX(nexAmount,msg.sender,msg.sender) */\n      tag_44\n        /* \"src/NEXEngine.sol\":3381:3390  nexAmount */\n      dup2\n        /* \"src/NEXEngine.sol\":3391:3401  msg.sender */\n      caller\n        /* \"src/NEXEngine.sol\":3402:3412  msg.sender */\n      caller\n        /* \"src/NEXEngine.sol\":3372:3380  _burnNEX */\n      tag_45\n        /* \"src/NEXEngine.sol\":3372:3413  _burnNEX(nexAmount,msg.sender,msg.sender) */\n      jump\t// in\n    tag_44:\n        /* \"src/NEXEngine.sol\":3423:3492  _redeemCollateral(tokenCollateralAddress,collateralAmount,msg.sender) */\n      tag_46\n        /* \"src/NEXEngine.sol\":3441:3463  tokenCollateralAddress */\n      dup4\n        /* \"src/NEXEngine.sol\":3464:3480  collateralAmount */\n      dup4\n        /* \"src/NEXEngine.sol\":3481:3491  msg.sender */\n      caller\n        /* \"src/NEXEngine.sol\":3423:3440  _redeemCollateral */\n      tag_31\n        /* \"src/NEXEngine.sol\":3423:3492  _redeemCollateral(tokenCollateralAddress,collateralAmount,msg.sender) */\n      jump\t// in\n    tag_46:\n        /* \"src/NEXEngine.sol\":3212:3499  function redeemColletralForNex(... */\n      pop\n      pop\n      pop\n      jump\t// out\n        /* \"@openzeppelin/contracts/security/ReentrancyGuard.sol\":2336:2623  function _nonReentrantBefore() private {... */\n    tag_26:\n        /* \"@openzeppelin/contracts/security/ReentrancyGuard.sol\":1759:1760  2 */\n      0x02\n        /* \"@openzeppelin/contracts/security/ReentrancyGuard.sol\":2468:2475  _status */\n      sload(0x00)\n        /* \"@openzeppelin/contracts/security/ReentrancyGuard.sol\":2468:2487  _status != _ENTERED */\n      sub\n        /* \"@openzeppelin/contracts/security/ReentrancyGuard.sol\":2460:2523  require(_status != _ENTERED, \"ReentrancyGuard: reentrant call\") */\n      tag_48\n      jumpi\n      mload(0x40)\n      0x08c379a000000000000000000000000000000000000000000000000000000000\n      dup2\n      mstore\n      0x04\n      add\n      tag_49\n      swap1\n      tag_50\n      jump\t// in\n    tag_49:\n      mload(0x40)\n      dup1\n      swap2\n      sub\n      swap1\n      revert\n    tag_48:\n        /* \"@openzeppelin/contracts/security/ReentrancyGuard.sol\":1759:1760  2 */\n      0x02\n        /* \"@openzeppelin/contracts/security/ReentrancyGuard.sol\":2598:2605  _status */\n      0x00\n        /* \"@openzeppelin/contracts/security/ReentrancyGuard.sol\":2598:2616  _status = _ENTERED */\n      dup2\n      swap1\n      sstore\n      pop\n        /* \"@openzeppelin/contracts/security/ReentrancyGuard.sol\":2336:2623  function _nonReentrantBefore() private {... */\n      jump\t// out\n        /* \"src/NEXEngine.sol\":4161:4489  function _redeemCollateral(address collateralAddress,uint256 amountCollateral,address to) private {... */\n    tag_31:\n        /* \"src/NEXEngine.sol\":4305:4321  amountCollateral */\n      dup2\n        /* \"src/NEXEngine.sol\":4269:4289  _collateralDeposited */\n      0x02\n        /* \"src/NEXEngine.sol\":4269:4301  _collateralDeposited[msg.sender] */\n      0x00\n        /* \"src/NEXEngine.sol\":4290:4300  msg.sender */\n      caller\n        /* \"src/NEXEngine.sol\":4269:4301  _collateralDeposited[msg.sender] */\n      0xffffffffffffffffffffffffffffffffffffffff\n      and\n      0xffffffffffffffffffffffffffffffffffffffff\n      and\n      dup2\n      mstore\n      0x20\n      add\n      swap1\n      dup2\n      mstore\n      0x20\n      add\n      0x00\n      keccak256\n      0x00\n        /* \"src/NEXEngine.sol\":4269:4321  _collateralDeposited[msg.sender] -= amountCollateral */\n      dup3\n      dup3\n      sload\n      tag_52\n      swap2\n      swap1\n      tag_53\n      jump\t// in\n    tag_52:\n      swap3\n      pop\n      pop\n      dup2\n      swap1\n      sstore\n      pop\n        /* \"src/NEXEngine.sol\":4332:4344  bool success */\n      0x00\n        /* \"src/NEXEngine.sol\":4354:4371  collateralAddress */\n      dup4\n        /* \"src/NEXEngine.sol\":4347:4381  IERC20(collateralAddress).transfer */\n      0xffffffffffffffffffffffffffffffffffffffff\n      and\n      0xa9059cbb\n        /* \"src/NEXEngine.sol\":4382:4384  to */\n      dup4\n        /* \"src/NEXEngine.sol\":4386:4402  amountCollateral */\n      dup6\n        /* \"src/NEXEngine.sol\":4347:4403  IERC20(collateralAddress).transfer(to, amountCollateral) */\n      mload(0x40)\n      dup4\n      0xffffffff\n      and\n      0xe0\n      shl\n      dup2\n      mstore\n      0x04\n      add\n      tag_54\n      swap3\n      swap2\n      swap1\n      tag_55\n      jump\t// in\n    tag_54:\n      0x20\n      mload(0x40)\n      dup1\n      dup4\n      sub\n      dup2\n      0x00\n      dup8\n      gas\n      call\n      iszero\n      dup1\n      iszero\n      tag_57\n      jumpi\n      returndatacopy(0x00, 0x00, returndatasize)\n      revert(0x00, returndatasize)\n    tag_57:\n      pop\n      pop\n      pop\n      pop\n      mload(0x40)\n      returndatasize\n      not(0x1f)\n      0x1f\n      dup3\n      add\n      and\n      dup3\n      add\n      dup1\n      0x40\n      mstore\n      pop\n      dup2\n      add\n      swap1\n      tag_58\n      swap2\n      swap1\n      tag_59\n      jump\t// in\n    tag_58:\n        /* \"src/NEXEngine.sol\":4332:4403  bool success = IERC20(collateralAddress).transfer(to, amountCollateral) */\n      swap1\n      pop\n        /* \"src/NEXEngine.sol\":4419:4426  success */\n      dup1\n        /* \"src/NEXEngine.sol\":4414:4483  if (!success){... */\n      tag_60\n      jumpi\n        /* \"src/NEXEngine.sol\":4448:4472  NEXEngine_RedeemFailed() */\n      mload(0x40)\n      0x68171d3300000000000000000000000000000000000000000000000000000000\n      dup2\n      mstore\n      0x04\n      add\n      mload(0x40)\n      dup1\n      swap2\n      sub\n      swap1\n      revert\n        /* \"src/NEXEngine.sol\":4414:4483  if (!success){... */\n    tag_60:\n        /* \"src/NEXEngine.sol\":4259:4489  {... */\n      pop\n        /* \"src/NEXEngine.sol\":4161:4489  function _redeemCollateral(address collateralAddress,uint256 amountCollateral,address to) private {... */\n      pop\n      pop\n      pop\n      jump\t// out\n        /* \"@openzeppelin/contracts/security/ReentrancyGuard.sol\":2629:2838  function _nonReentrantAfter() private {... */\n    tag_33:\n        /* \"@openzeppelin/contracts/security/ReentrancyGuard.sol\":1716:1717  1 */\n      0x01\n        /* \"@openzeppelin/contracts/security/ReentrancyGuard.sol\":2809:2816  _status */\n      0x00\n        /* \"@openzeppelin/contracts/security/ReentrancyGuard.sol\":2809:2831  _status = _NOT_ENTERED */\n      dup2\n      swap1\n      sstore\n      pop\n        /* \"@openzeppelin/contracts/security/ReentrancyGuard.sol\":2629:2838  function _nonReentrantAfter() private {... */\n      jump\t// out\n        /* \"src/NEXEngine.sol\":2417:2915  function _depositeCollateral(address _colletral, uint256 _amount) internal{... */\n    tag_38:\n        /* \"src/NEXEngine.sol\":2663:2670  _amount */\n      dup1\n        /* \"src/NEXEngine.sol\":2627:2647  _collateralDeposited */\n      0x02\n        /* \"src/NEXEngine.sol\":2627:2659  _collateralDeposited[msg.sender] */\n      0x00\n        /* \"src/NEXEngine.sol\":2648:2658  msg.sender */\n      caller\n        /* \"src/NEXEngine.sol\":2627:2659  _collateralDeposited[msg.sender] */\n      0xffffffffffffffffffffffffffffffffffffffff\n      and\n      0xffffffffffffffffffffffffffffffffffffffff\n      and\n      dup2\n      mstore\n      0x20\n      add\n      swap1\n      dup2\n      mstore\n      0x20\n      add\n      0x00\n      keccak256\n      0x00\n        /* \"src/NEXEngine.sol\":2627:2670  _collateralDeposited[msg.sender] += _amount */\n      dup3\n      dup3\n      sload\n      tag_63\n      swap2\n      swap1\n      tag_64\n      jump\t// in\n    tag_63:\n      swap3\n      pop\n      pop\n      dup2\n      swap1\n      sstore\n      pop\n        /* \"src/NEXEngine.sol\":2680:2692  bool success */\n      0x00\n        /* \"src/NEXEngine.sol\":2701:2711  _colletral */\n      dup3\n        /* \"src/NEXEngine.sol\":2694:2725  IERC20(_colletral).transferFrom */\n      0xffffffffffffffffffffffffffffffffffffffff\n      and\n      0x23b872dd\n        /* \"src/NEXEngine.sol\":2726:2736  msg.sender */\n      caller\n        /* \"src/NEXEngine.sol\":2746:2750  this */\n      address\n        /* \"src/NEXEngine.sol\":2753:2760  _amount */\n      dup6\n        /* \"src/NEXEngine.sol\":2694:2761  IERC20(_colletral).transferFrom(msg.sender, address(this), _amount) */\n      mload(0x40)\n      dup5\n      0xffffffff\n      and\n      0xe0\n      shl\n      dup2\n      mstore\n      0x04\n      add\n      tag_65\n      swap4\n      swap3\n      swap2\n      swap1\n      tag_66\n      jump\t// in\n    tag_65:\n      0x20\n      mload(0x40)\n      dup1\n      dup4\n      sub\n      dup2\n      0x00\n      dup8\n      gas\n      call\n      iszero\n      dup1\n      iszero\n      tag_68\n      jumpi\n      returndatacopy(0x00, 0x00, returndatasize)\n      revert(0x00, returndatasize)\n    tag_68:\n      pop\n      pop\n      pop\n      pop\n      mload(0x40)\n      returndatasize\n      not(0x1f)\n      0x1f\n      dup3\n      add\n      and\n      dup3\n      add\n      dup1\n      0x40\n      mstore\n      pop\n      dup2\n      add\n      swap1\n      tag_69\n      swap2\n      swap1\n      tag_59\n      jump\t// in\n    tag_69:\n        /* \"src/NEXEngine.sol\":2680:2761  bool success =IERC20(_colletral).transferFrom(msg.sender, address(this), _amount) */\n      swap1\n      pop\n        /* \"src/NEXEngine.sol\":2776:2783  success */\n      dup1\n        /* \"src/NEXEngine.sol\":2771:2843  if (!success) {... */\n      tag_70\n      jumpi\n        /* \"src/NEXEngine.sol\":2806:2832  NEXEngine_DepositeFailed() */\n      mload(0x40)\n      0x27e85e4c00000000000000000000000000000000000000000000000000000000\n      dup2\n      mstore\n      0x04\n      add\n      mload(0x40)\n      dup1\n      swap2\n      sub\n      swap1\n      revert\n        /* \"src/NEXEngine.sol\":2771:2843  if (!success) {... */\n    tag_70:\n        /* \"src/NEXEngine.sol\":2887:2897  _colletral */\n      dup3\n        /* \"src/NEXEngine.sol\":2857:2907  DepositeColletral(msg.sender, _colletral, _amount) */\n      0xffffffffffffffffffffffffffffffffffffffff\n      and\n        /* \"src/NEXEngine.sol\":2875:2885  msg.sender */\n      caller\n        /* \"src/NEXEngine.sol\":2857:2907  DepositeColletral(msg.sender, _colletral, _amount) */\n      0xffffffffffffffffffffffffffffffffffffffff\n      and\n      0x5285b574be509117ddacaa5a2d92a4b3e23f805547f65b5b77de327acd17506e\n        /* \"src/NEXEngine.sol\":2899:2906  _amount */\n      dup5\n        /* \"src/NEXEngine.sol\":2857:2907  DepositeColletral(msg.sender, _colletral, _amount) */\n      mload(0x40)\n      tag_71\n      swap2\n      swap1\n      tag_72\n      jump\t// in\n    tag_71:\n      mload(0x40)\n      dup1\n      swap2\n      sub\n      swap1\n      log3\n        /* \"src/NEXEngine.sol\":2491:2915  {... */\n      pop\n        /* \"src/NEXEngine.sol\":2417:2915  function _depositeCollateral(address _colletral, uint256 _amount) internal{... */\n      pop\n      pop\n      jump\t// out\n        /* \"src/NEXEngine.sol\":3816:4073  function mintNEX(uint256 _amountNexToMint) internal {... */\n    tag_40:\n        /* \"src/NEXEngine.sol\":3905:3921  _amountNexToMint */\n      dup1\n        /* \"src/NEXEngine.sol\":3878:3889  s_NexMinted */\n      0x03\n        /* \"src/NEXEngine.sol\":3878:3901  s_NexMinted[msg.sender] */\n      0x00\n        /* \"src/NEXEngine.sol\":3890:3900  msg.sender */\n      caller\n        /* \"src/NEXEngine.sol\":3878:3901  s_NexMinted[msg.sender] */\n      0xffffffffffffffffffffffffffffffffffffffff\n      and\n      0xffffffffffffffffffffffffffffffffffffffff\n      and\n      dup2\n      mstore\n      0x20\n      add\n      swap1\n      dup2\n      mstore\n      0x20\n      add\n      0x00\n      keccak256\n      0x00\n        /* \"src/NEXEngine.sol\":3878:3921  s_NexMinted[msg.sender] += _amountNexToMint */\n      dup3\n      dup3\n      sload\n      tag_74\n      swap2\n      swap1\n      tag_64\n      jump\t// in\n    tag_74:\n      swap3\n      pop\n      pop\n      dup2\n      swap1\n      sstore\n      pop\n        /* \"src/NEXEngine.sol\":4026:4030  _nex */\n      immutable(\"0x1d814fa3c8873fbda672528deddbda568ddac7b498936bbbf1a966e21ab8357e\")\n        /* \"src/NEXEngine.sol\":4026:4035  _nex.mint */\n      0xffffffffffffffffffffffffffffffffffffffff\n      and\n      0x40c10f19\n        /* \"src/NEXEngine.sol\":4036:4046  msg.sender */\n      caller\n        /* \"src/NEXEngine.sol\":4048:4064  _amountNexToMint */\n      dup4\n        /* \"src/NEXEngine.sol\":4026:4065  _nex.mint(msg.sender, _amountNexToMint) */\n      mload(0x40)\n      dup4\n      0xffffffff\n      and\n      0xe0\n      shl\n      dup2\n      mstore\n      0x04\n      add\n      tag_75\n      swap3\n      swap2\n      swap1\n      tag_55\n      jump\t// in\n    tag_75:\n      0x00\n      mload(0x40)\n      dup1\n      dup4\n      sub\n      dup2\n      0x00\n      dup8\n      dup1\n      extcodesize\n      iszero\n      dup1\n      iszero\n      tag_76\n      jumpi\n      revert(0x00, 0x00)\n    tag_76:\n      pop\n      gas\n      call\n      iszero\n      dup1\n      iszero\n      tag_78\n      jumpi\n      returndatacopy(0x00, 0x00, returndatasize)\n      revert(0x00, returndatasize)\n    tag_78:\n      pop\n      pop\n      pop\n      pop\n        /* \"src/NEXEngine.sol\":3816:4073  function mintNEX(uint256 _amountNexToMint) internal {... */\n      pop\n      jump\t// out\n        /* \"src/NEXEngine.sol\":3508:3810  function _burnNEX(uint256 amountNexToburn, address onbehalf,address fromnex) internal {... */\n    tag_45:\n        /* \"src/NEXEngine.sol\":3629:3644  amountNexToburn */\n      dup3\n        /* \"src/NEXEngine.sol\":3604:3615  s_NexMinted */\n      0x03\n        /* \"src/NEXEngine.sol\":3604:3625  s_NexMinted[onbehalf] */\n      0x00\n        /* \"src/NEXEngine.sol\":3616:3624  onbehalf */\n      dup5\n        /* \"src/NEXEngine.sol\":3604:3625  s_NexMinted[onbehalf] */\n      0xffffffffffffffffffffffffffffffffffffffff\n      and\n      0xffffffffffffffffffffffffffffffffffffffff\n      and\n      dup2\n      mstore\n      0x20\n      add\n      swap1\n      dup2\n      mstore\n      0x20\n      add\n      0x00\n      keccak256\n      0x00\n        /* \"src/NEXEngine.sol\":3604:3644  s_NexMinted[onbehalf] -= amountNexToburn */\n      dup3\n      dup3\n      sload\n      tag_80\n      swap2\n      swap1\n      tag_53\n      jump\t// in\n    tag_80:\n      swap3\n      pop\n      pop\n      dup2\n      swap1\n      sstore\n      pop\n        /* \"src/NEXEngine.sol\":3655:3667  bool success */\n      0x00\n        /* \"src/NEXEngine.sol\":3670:3674  _nex */\n      immutable(\"0x1d814fa3c8873fbda672528deddbda568ddac7b498936bbbf1a966e21ab8357e\")\n        /* \"src/NEXEngine.sol\":3670:3687  _nex.transferFrom */\n      0xffffffffffffffffffffffffffffffffffffffff\n      and\n      0x23b872dd\n        /* \"src/NEXEngine.sol\":3688:3695  fromnex */\n      dup4\n        /* \"src/NEXEngine.sol\":3704:3708  this */\n      address\n        /* \"src/NEXEngine.sol\":3711:3726  amountNexToburn */\n      dup8\n        /* \"src/NEXEngine.sol\":3670:3727  _nex.transferFrom(fromnex,address(this), amountNexToburn) */\n      mload(0x40)\n      dup5\n      0xffffffff\n      and\n      0xe0\n      shl\n      dup2\n      mstore\n      0x04\n      add\n      tag_81\n      swap4\n      swap3\n      swap2\n      swap1\n      tag_66\n      jump\t// in\n    tag_81:\n      0x20\n      mload(0x40)\n      dup1\n      dup4\n      sub\n      dup2\n      0x00\n      dup8\n      gas\n      call\n      iszero\n      dup1\n      iszero\n      tag_83\n      jumpi\n      returndatacopy(0x00, 0x00, returndatasize)\n      revert(0x00, returndatasize)\n    tag_83:\n      pop\n      pop\n      pop\n      pop\n      mload(0x40)\n      returndatasize\n      not(0x1f)\n      0x1f\n      dup3\n      add\n      and\n      dup3\n      add\n      dup1\n      0x40\n      mstore\n      pop\n      dup2\n      add\n      swap1\n      tag_84\n      swap2\n      swap1\n      tag_59\n      jump\t// in\n    tag_84:\n        /* \"src/NEXEngine.sol\":3655:3727  bool success = _nex.transferFrom(fromnex,address(this), amountNexToburn) */\n      swap1\n      pop\n        /* \"src/NEXEngine.sol\":3742:3749  success */\n      dup1\n        /* \"src/NEXEngine.sol\":3738:3804  if(!success){... */\n      tag_85\n      jumpi\n        /* \"src/NEXEngine.sol\":3771:3793  NEXEngine_burnFailed() */\n      mload(0x40)\n      0x778c23f200000000000000000000000000000000000000000000000000000000\n      dup2\n      mstore\n      0x04\n      add\n      mload(0x40)\n      dup1\n      swap2\n      sub\n      swap1\n      revert\n        /* \"src/NEXEngine.sol\":3738:3804  if(!success){... */\n    tag_85:\n        /* \"src/NEXEngine.sol\":3594:3810  {... */\n      pop\n        /* \"src/NEXEngine.sol\":3508:3810  function _burnNEX(uint256 amountNexToburn, address onbehalf,address fromnex) internal {... */\n      pop\n      pop\n      pop\n      jump\t// out\n        /* \"#utility.yul\":88:205   */\n    tag_87:\n        /* \"#utility.yul\":197:198   */\n      0x00\n        /* \"#utility.yul\":194:195   */\n      0x00\n        /* \"#utility.yul\":187:199   */\n      revert\n        /* \"#utility.yul\":334:460   */\n    tag_89:\n        /* \"#utility.yul\":371:378   */\n      0x00\n        /* \"#utility.yul\":411:453   */\n      0xffffffffffffffffffffffffffffffffffffffff\n        /* \"#utility.yul\":404:409   */\n      dup3\n        /* \"#utility.yul\":400:454   */\n      and\n        /* \"#utility.yul\":389:454   */\n      swap1\n      pop\n        /* \"#utility.yul\":334:460   */\n      swap2\n      swap1\n      pop\n      jump\t// out\n        /* \"#utility.yul\":466:562   */\n    tag_90:\n        /* \"#utility.yul\":503:510   */\n      0x00\n        /* \"#utility.yul\":532:556   */\n      tag_111\n        /* \"#utility.yul\":550:555   */\n      dup3\n        /* \"#utility.yul\":532:556   */\n      tag_89\n      jump\t// in\n    tag_111:\n        /* \"#utility.yul\":521:556   */\n      swap1\n      pop\n        /* \"#utility.yul\":466:562   */\n      swap2\n      swap1\n      pop\n      jump\t// out\n        /* \"#utility.yul\":568:690   */\n    tag_91:\n        /* \"#utility.yul\":641:665   */\n      tag_113\n        /* \"#utility.yul\":659:664   */\n      dup2\n        /* \"#utility.yul\":641:665   */\n      tag_90\n      jump\t// in\n    tag_113:\n        /* \"#utility.yul\":634:639   */\n      dup2\n        /* \"#utility.yul\":631:666   */\n      eq\n        /* \"#utility.yul\":621:684   */\n      tag_114\n      jumpi\n        /* \"#utility.yul\":680:681   */\n      0x00\n        /* \"#utility.yul\":677:678   */\n      0x00\n        /* \"#utility.yul\":670:682   */\n      revert\n        /* \"#utility.yul\":621:684   */\n    tag_114:\n        /* \"#utility.yul\":568:690   */\n      pop\n      jump\t// out\n        /* \"#utility.yul\":696:835   */\n    tag_92:\n        /* \"#utility.yul\":742:747   */\n      0x00\n        /* \"#utility.yul\":780:786   */\n      dup2\n        /* \"#utility.yul\":767:787   */\n      calldataload\n        /* \"#utility.yul\":758:787   */\n      swap1\n      pop\n        /* \"#utility.yul\":796:829   */\n      tag_116\n        /* \"#utility.yul\":823:828   */\n      dup2\n        /* \"#utility.yul\":796:829   */\n      tag_91\n      jump\t// in\n    tag_116:\n        /* \"#utility.yul\":696:835   */\n      swap3\n      swap2\n      pop\n      pop\n      jump\t// out\n        /* \"#utility.yul\":841:918   */\n    tag_93:\n        /* \"#utility.yul\":878:885   */\n      0x00\n        /* \"#utility.yul\":907:912   */\n      dup2\n        /* \"#utility.yul\":896:912   */\n      swap1\n      pop\n        /* \"#utility.yul\":841:918   */\n      swap2\n      swap1\n      pop\n      jump\t// out\n        /* \"#utility.yul\":924:1046   */\n    tag_94:\n        /* \"#utility.yul\":997:1021   */\n      tag_119\n        /* \"#utility.yul\":1015:1020   */\n      dup2\n        /* \"#utility.yul\":997:1021   */\n      tag_93\n      jump\t// in\n    tag_119:\n        /* \"#utility.yul\":990:995   */\n      dup2\n        /* \"#utility.yul\":987:1022   */\n      eq\n        /* \"#utility.yul\":977:1040   */\n      tag_120\n      jumpi\n        /* \"#utility.yul\":1036:1037   */\n      0x00\n        /* \"#utility.yul\":1033:1034   */\n      0x00\n        /* \"#utility.yul\":1026:1038   */\n      revert\n        /* \"#utility.yul\":977:1040   */\n    tag_120:\n        /* \"#utility.yul\":924:1046   */\n      pop\n      jump\t// out\n        /* \"#utility.yul\":1052:1191   */\n    tag_95:\n        /* \"#utility.yul\":1098:1103   */\n      0x00\n        /* \"#utility.yul\":1136:1142   */\n      dup2\n        /* \"#utility.yul\":1123:1143   */\n      calldataload\n        /* \"#utility.yul\":1114:1143   */\n      swap1\n      pop\n        /* \"#utility.yul\":1152:1185   */\n      tag_122\n        /* \"#utility.yul\":1179:1184   */\n      dup2\n        /* \"#utility.yul\":1152:1185   */\n      tag_94\n      jump\t// in\n    tag_122:\n        /* \"#utility.yul\":1052:1191   */\n      swap3\n      swap2\n      pop\n      pop\n      jump\t// out\n        /* \"#utility.yul\":1197:1671   */\n    tag_12:\n        /* \"#utility.yul\":1265:1271   */\n      0x00\n        /* \"#utility.yul\":1273:1279   */\n      0x00\n        /* \"#utility.yul\":1322:1324   */\n      0x40\n        /* \"#utility.yul\":1310:1319   */\n      dup4\n        /* \"#utility.yul\":1301:1308   */\n      dup6\n        /* \"#utility.yul\":1297:1320   */\n      sub\n        /* \"#utility.yul\":1293:1325   */\n      slt\n        /* \"#utility.yul\":1290:1409   */\n      iszero\n      tag_124\n      jumpi\n        /* \"#utility.yul\":1328:1407   */\n      tag_125\n      tag_87\n      jump\t// in\n    tag_125:\n        /* \"#utility.yul\":1290:1409   */\n    tag_124:\n        /* \"#utility.yul\":1448:1449   */\n      0x00\n        /* \"#utility.yul\":1473:1526   */\n      tag_126\n        /* \"#utility.yul\":1518:1525   */\n      dup6\n        /* \"#utility.yul\":1509:1515   */\n      dup3\n        /* \"#utility.yul\":1498:1507   */\n      dup7\n        /* \"#utility.yul\":1494:1516   */\n      add\n        /* \"#utility.yul\":1473:1526   */\n      tag_92\n      jump\t// in\n    tag_126:\n        /* \"#utility.yul\":1463:1526   */\n      swap3\n      pop\n        /* \"#utility.yul\":1419:1536   */\n      pop\n        /* \"#utility.yul\":1575:1577   */\n      0x20\n        /* \"#utility.yul\":1601:1654   */\n      tag_127\n        /* \"#utility.yul\":1646:1653   */\n      dup6\n        /* \"#utility.yul\":1637:1643   */\n      dup3\n        /* \"#utility.yul\":1626:1635   */\n      dup7\n        /* \"#utility.yul\":1622:1644   */\n      add\n        /* \"#utility.yul\":1601:1654   */\n      tag_95\n      jump\t// in\n    tag_127:\n        /* \"#utility.yul\":1591:1654   */\n      swap2\n      pop\n        /* \"#utility.yul\":1546:1664   */\n      pop\n        /* \"#utility.yul\":1197:1671   */\n      swap3\n      pop\n      swap3\n      swap1\n      pop\n      jump\t// out\n        /* \"#utility.yul\":1677:2296   */\n    tag_16:\n        /* \"#utility.yul\":1754:1760   */\n      0x00\n        /* \"#utility.yul\":1762:1768   */\n      0x00\n        /* \"#utility.yul\":1770:1776   */\n      0x00\n        /* \"#utility.yul\":1819:1821   */\n      0x60\n        /* \"#utility.yul\":1807:1816   */\n      dup5\n        /* \"#utility.yul\":1798:1805   */\n      dup7\n        /* \"#utility.yul\":1794:1817   */\n      sub\n        /* \"#utility.yul\":1790:1822   */\n      slt\n        /* \"#utility.yul\":1787:1906   */\n      iszero\n      tag_129\n      jumpi\n        /* \"#utility.yul\":1825:1904   */\n      tag_130\n      tag_87\n      jump\t// in\n    tag_130:\n        /* \"#utility.yul\":1787:1906   */\n    tag_129:\n        /* \"#utility.yul\":1945:1946   */\n      0x00\n        /* \"#utility.yul\":1970:2023   */\n      tag_131\n        /* \"#utility.yul\":2015:2022   */\n      dup7\n        /* \"#utility.yul\":2006:2012   */\n      dup3\n        /* \"#utility.yul\":1995:2004   */\n      dup8\n        /* \"#utility.yul\":1991:2013   */\n      add\n        /* \"#utility.yul\":1970:2023   */\n      tag_92\n      jump\t// in\n    tag_131:\n        /* \"#utility.yul\":1960:2023   */\n      swap4\n      pop\n        /* \"#utility.yul\":1916:2033   */\n      pop\n        /* \"#utility.yul\":2072:2074   */\n      0x20\n        /* \"#utility.yul\":2098:2151   */\n      tag_132\n        /* \"#utility.yul\":2143:2150   */\n      dup7\n        /* \"#utility.yul\":2134:2140   */\n      dup3\n        /* \"#utility.yul\":2123:2132   */\n      dup8\n        /* \"#utility.yul\":2119:2141   */\n      add\n        /* \"#utility.yul\":2098:2151   */\n      tag_95\n      jump\t// in\n    tag_132:\n        /* \"#utility.yul\":2088:2151   */\n      swap3\n      pop\n        /* \"#utility.yul\":2043:2161   */\n      pop\n        /* \"#utility.yul\":2200:2202   */\n      0x40\n        /* \"#utility.yul\":2226:2279   */\n      tag_133\n        /* \"#utility.yul\":2271:2278   */\n      dup7\n        /* \"#utility.yul\":2262:2268   */\n      dup3\n        /* \"#utility.yul\":2251:2260   */\n      dup8\n        /* \"#utility.yul\":2247:2269   */\n      add\n        /* \"#utility.yul\":2226:2279   */\n      tag_95\n      jump\t// in\n    tag_133:\n        /* \"#utility.yul\":2216:2279   */\n      swap2\n      pop\n        /* \"#utility.yul\":2171:2289   */\n      pop\n        /* \"#utility.yul\":1677:2296   */\n      swap3\n      pop\n      swap3\n      pop\n      swap3\n      jump\t// out\n        /* \"#utility.yul\":2302:2471   */\n    tag_96:\n        /* \"#utility.yul\":2386:2397   */\n      0x00\n        /* \"#utility.yul\":2420:2426   */\n      dup3\n        /* \"#utility.yul\":2415:2418   */\n      dup3\n        /* \"#utility.yul\":2408:2427   */\n      mstore\n        /* \"#utility.yul\":2460:2464   */\n      0x20\n        /* \"#utility.yul\":2455:2458   */\n      dup3\n        /* \"#utility.yul\":2451:2465   */\n      add\n        /* \"#utility.yul\":2436:2465   */\n      swap1\n      pop\n        /* \"#utility.yul\":2302:2471   */\n      swap3\n      swap2\n      pop\n      pop\n      jump\t// out\n        /* \"#utility.yul\":2477:2658   */\n    tag_97:\n        /* \"#utility.yul\":2617:2650   */\n      0x5265656e7472616e637947756172643a207265656e7472616e742063616c6c00\n        /* \"#utility.yul\":2613:2614   */\n      0x00\n        /* \"#utility.yul\":2605:2611   */\n      dup3\n        /* \"#utility.yul\":2601:2615   */\n      add\n        /* \"#utility.yul\":2594:2651   */\n      mstore\n        /* \"#utility.yul\":2477:2658   */\n      pop\n      jump\t// out\n        /* \"#utility.yul\":2664:3030   */\n    tag_98:\n        /* \"#utility.yul\":2806:2809   */\n      0x00\n        /* \"#utility.yul\":2827:2894   */\n      tag_137\n        /* \"#utility.yul\":2891:2893   */\n      0x1f\n        /* \"#utility.yul\":2886:2889   */\n      dup4\n        /* \"#utility.yul\":2827:2894   */\n      tag_96\n      jump\t// in\n    tag_137:\n        /* \"#utility.yul\":2820:2894   */\n      swap2\n      pop\n        /* \"#utility.yul\":2903:2996   */\n      tag_138\n        /* \"#utility.yul\":2992:2995   */\n      dup3\n        /* \"#utility.yul\":2903:2996   */\n      tag_97\n      jump\t// in\n    tag_138:\n        /* \"#utility.yul\":3021:3023   */\n      0x20\n        /* \"#utility.yul\":3016:3019   */\n      dup3\n        /* \"#utility.yul\":3012:3024   */\n      add\n        /* \"#utility.yul\":3005:3024   */\n      swap1\n      pop\n        /* \"#utility.yul\":2664:3030   */\n      swap2\n      swap1\n      pop\n      jump\t// out\n        /* \"#utility.yul\":3036:3455   */\n    tag_50:\n        /* \"#utility.yul\":3202:3206   */\n      0x00\n        /* \"#utility.yul\":3240:3242   */\n      0x20\n        /* \"#utility.yul\":3229:3238   */\n      dup3\n        /* \"#utility.yul\":3225:3243   */\n      add\n        /* \"#utility.yul\":3217:3243   */\n      swap1\n      pop\n        /* \"#utility.yul\":3289:3298   */\n      dup2\n        /* \"#utility.yul\":3283:3287   */\n      dup2\n        /* \"#utility.yul\":3279:3299   */\n      sub\n        /* \"#utility.yul\":3275:3276   */\n      0x00\n        /* \"#utility.yul\":3264:3273   */\n      dup4\n        /* \"#utility.yul\":3260:3277   */\n      add\n        /* \"#utility.yul\":3253:3300   */\n      mstore\n        /* \"#utility.yul\":3317:3448   */\n      tag_140\n        /* \"#utility.yul\":3443:3447   */\n      dup2\n        /* \"#utility.yul\":3317:3448   */\n      tag_98\n      jump\t// in\n    tag_140:\n        /* \"#utility.yul\":3309:3448   */\n      swap1\n      pop\n        /* \"#utility.yul\":3036:3455   */\n      swap2\n      swap1\n      pop\n      jump\t// out\n        /* \"#utility.yul\":3461:3641   */\n    tag_99:\n        /* \"#utility.yul\":3509:3586   */\n      0x4e487b7100000000000000000000000000000000000000000000000000000000\n        /* \"#utility.yul\":3506:3507   */\n      0x00\n        /* \"#utility.yul\":3499:3587   */\n      mstore\n        /* \"#utility.yul\":3606:3610   */\n      0x11\n        /* \"#utility.yul\":3603:3604   */\n      0x04\n        /* \"#utility.yul\":3596:3611   */\n      mstore\n        /* \"#utility.yul\":3630:3634   */\n      0x24\n        /* \"#utility.yul\":3627:3628   */\n      0x00\n        /* \"#utility.yul\":3620:3635   */\n      revert\n        /* \"#utility.yul\":3647:3841   */\n    tag_53:\n        /* \"#utility.yul\":3687:3691   */\n      0x00\n        /* \"#utility.yul\":3707:3727   */\n      tag_143\n        /* \"#utility.yul\":3725:3726   */\n      dup3\n        /* \"#utility.yul\":3707:3727   */\n      tag_93\n      jump\t// in\n    tag_143:\n        /* \"#utility.yul\":3702:3727   */\n      swap2\n      pop\n        /* \"#utility.yul\":3741:3761   */\n      tag_144\n        /* \"#utility.yul\":3759:3760   */\n      dup4\n        /* \"#utility.yul\":3741:3761   */\n      tag_93\n      jump\t// in\n    tag_144:\n        /* \"#utility.yul\":3736:3761   */\n      swap3\n      pop\n        /* \"#utility.yul\":3785:3786   */\n      dup3\n        /* \"#utility.yul\":3782:3783   */\n      dup3\n        /* \"#utility.yul\":3778:3787   */\n      sub\n        /* \"#utility.yul\":3770:3787   */\n      swap1\n      pop\n        /* \"#utility.yul\":3809:3810   */\n      dup2\n        /* \"#utility.yul\":3803:3807   */\n      dup2\n        /* \"#utility.yul\":3800:3811   */\n      gt\n        /* \"#utility.yul\":3797:3834   */\n      iszero\n      tag_145\n      jumpi\n        /* \"#utility.yul\":3814:3832   */\n      tag_146\n      tag_99\n      jump\t// in\n    tag_146:\n        /* \"#utility.yul\":3797:3834   */\n    tag_145:\n        /* \"#utility.yul\":3647:3841   */\n      swap3\n      swap2\n      pop\n      pop\n      jump\t// out\n        /* \"#utility.yul\":3847:3965   */\n    tag_100:\n        /* \"#utility.yul\":3934:3958   */\n      tag_148\n        /* \"#utility.yul\":3952:3957   */\n      dup2\n        /* \"#utility.yul\":3934:3958   */\n      tag_90\n      jump\t// in\n    tag_148:\n        /* \"#utility.yul\":3929:3932   */\n      dup3\n        /* \"#utility.yul\":3922:3959   */\n      mstore\n        /* \"#utility.yul\":3847:3965   */\n      pop\n      pop\n      jump\t// out\n        /* \"#utility.yul\":3971:4089   */\n    tag_101:\n        /* \"#utility.yul\":4058:4082   */\n      tag_150\n        /* \"#utility.yul\":4076:4081   */\n      dup2\n        /* \"#utility.yul\":4058:4082   */\n      tag_93\n      jump\t// in\n    tag_150:\n        /* \"#utility.yul\":4053:4056   */\n      dup3\n        /* \"#utility.yul\":4046:4083   */\n      mstore\n        /* \"#utility.yul\":3971:4089   */\n      pop\n      pop\n      jump\t// out\n        /* \"#utility.yul\":4095:4427   */\n    tag_55:\n        /* \"#utility.yul\":4216:4220   */\n      0x00\n        /* \"#utility.yul\":4254:4256   */\n      0x40\n        /* \"#utility.yul\":4243:4252   */\n      dup3\n        /* \"#utility.yul\":4239:4257   */\n      add\n        /* \"#utility.yul\":4231:4257   */\n      swap1\n      pop\n        /* \"#utility.yul\":4267:4338   */\n      tag_152\n        /* \"#utility.yul\":4335:4336   */\n      0x00\n        /* \"#utility.yul\":4324:4333   */\n      dup4\n        /* \"#utility.yul\":4320:4337   */\n      add\n        /* \"#utility.yul\":4311:4317   */\n      dup6\n        /* \"#utility.yul\":4267:4338   */\n      tag_100\n      jump\t// in\n    tag_152:\n        /* \"#utility.yul\":4348:4420   */\n      tag_153\n        /* \"#utility.yul\":4416:4418   */\n      0x20\n        /* \"#utility.yul\":4405:4414   */\n      dup4\n        /* \"#utility.yul\":4401:4419   */\n      add\n        /* \"#utility.yul\":4392:4398   */\n      dup5\n        /* \"#utility.yul\":4348:4420   */\n      tag_101\n      jump\t// in\n    tag_153:\n        /* \"#utility.yul\":4095:4427   */\n      swap4\n      swap3\n      pop\n      pop\n      pop\n      jump\t// out\n        /* \"#utility.yul\":4433:4523   */\n    tag_102:\n        /* \"#utility.yul\":4467:4474   */\n      0x00\n        /* \"#utility.yul\":4510:4515   */\n      dup2\n        /* \"#utility.yul\":4503:4516   */\n      iszero\n        /* \"#utility.yul\":4496:4517   */\n      iszero\n        /* \"#utility.yul\":4485:4517   */\n      swap1\n      pop\n        /* \"#utility.yul\":4433:4523   */\n      swap2\n      swap1\n      pop\n      jump\t// out\n        /* \"#utility.yul\":4529:4645   */\n    tag_103:\n        /* \"#utility.yul\":4599:4620   */\n      tag_156\n        /* \"#utility.yul\":4614:4619   */\n      dup2\n        /* \"#utility.yul\":4599:4620   */\n      tag_102\n      jump\t// in\n    tag_156:\n        /* \"#utility.yul\":4592:4597   */\n      dup2\n        /* \"#utility.yul\":4589:4621   */\n      eq\n        /* \"#utility.yul\":4579:4639   */\n      tag_157\n      jumpi\n        /* \"#utility.yul\":4635:4636   */\n      0x00\n        /* \"#utility.yul\":4632:4633   */\n      0x00\n        /* \"#utility.yul\":4625:4637   */\n      revert\n        /* \"#utility.yul\":4579:4639   */\n    tag_157:\n        /* \"#utility.yul\":4529:4645   */\n      pop\n      jump\t// out\n        /* \"#utility.yul\":4651:4788   */\n    tag_104:\n        /* \"#utility.yul\":4705:4710   */\n      0x00\n        /* \"#utility.yul\":4736:4742   */\n      dup2\n        /* \"#utility.yul\":4730:4743   */\n      mload\n        /* \"#utility.yul\":4721:4743   */\n      swap1\n      pop\n        /* \"#utility.yul\":4752:4782   */\n      tag_159\n        /* \"#utility.yul\":4776:4781   */\n      dup2\n        /* \"#utility.yul\":4752:4782   */\n      tag_103\n      jump\t// in\n    tag_159:\n        /* \"#utility.yul\":4651:4788   */\n      swap3\n      swap2\n      pop\n      pop\n      jump\t// out\n        /* \"#utility.yul\":4794:5139   */\n    tag_59:\n        /* \"#utility.yul\":4861:4867   */\n      0x00\n        /* \"#utility.yul\":4910:4912   */\n      0x20\n        /* \"#utility.yul\":4898:4907   */\n      dup3\n        /* \"#utility.yul\":4889:4896   */\n      dup5\n        /* \"#utility.yul\":4885:4908   */\n      sub\n        /* \"#utility.yul\":4881:4913   */\n      slt\n        /* \"#utility.yul\":4878:4997   */\n      iszero\n      tag_161\n      jumpi\n        /* \"#utility.yul\":4916:4995   */\n      tag_162\n      tag_87\n      jump\t// in\n    tag_162:\n        /* \"#utility.yul\":4878:4997   */\n    tag_161:\n        /* \"#utility.yul\":5036:5037   */\n      0x00\n        /* \"#utility.yul\":5061:5122   */\n      tag_163\n        /* \"#utility.yul\":5114:5121   */\n      dup5\n        /* \"#utility.yul\":5105:5111   */\n      dup3\n        /* \"#utility.yul\":5094:5103   */\n      dup6\n        /* \"#utility.yul\":5090:5112   */\n      add\n        /* \"#utility.yul\":5061:5122   */\n      tag_104\n      jump\t// in\n    tag_163:\n        /* \"#utility.yul\":5051:5122   */\n      swap2\n      pop\n        /* \"#utility.yul\":5007:5132   */\n      pop\n        /* \"#utility.yul\":4794:5139   */\n      swap3\n      swap2\n      pop\n      pop\n      jump\t// out\n        /* \"#utility.yul\":5145:5336   */\n    tag_64:\n        /* \"#utility.yul\":5185:5188   */\n      0x00\n        /* \"#utility.yul\":5204:5224   */\n      tag_165\n        /* \"#utility.yul\":5222:5223   */\n      dup3\n        /* \"#utility.yul\":5204:5224   */\n      tag_93\n      jump\t// in\n    tag_165:\n        /* \"#utility.yul\":5199:5224   */\n      swap2\n      pop\n        /* \"#utility.yul\":5238:5258   */\n      tag_166\n        /* \"#utility.yul\":5256:5257   */\n      dup4\n        /* \"#utility.yul\":5238:5258   */\n      tag_93\n      jump\t// in\n    tag_166:\n        /* \"#utility.yul\":5233:5258   */\n      swap3\n      pop\n        /* \"#utility.yul\":5281:5282   */\n      dup3\n        /* \"#utility.yul\":5278:5279   */\n      dup3\n        /* \"#utility.yul\":5274:5283   */\n      add\n        /* \"#utility.yul\":5267:5283   */\n      swap1\n      pop\n        /* \"#utility.yul\":5302:5305   */\n      dup1\n        /* \"#utility.yul\":5299:5300   */\n      dup3\n        /* \"#utility.yul\":5296:5306   */\n      gt\n        /* \"#utility.yul\":5293:5329   */\n      iszero\n      tag_167\n      jumpi\n        /* \"#utility.yul\":5309:5327   */\n      tag_168\n      tag_99\n      jump\t// in\n    tag_168:\n        /* \"#utility.yul\":5293:5329   */\n    tag_167:\n        /* \"#utility.yul\":5145:5336   */\n      swap3\n      swap2\n      pop\n      pop\n      jump\t// out\n        /* \"#utility.yul\":5342:5784   */\n    tag_66:\n        /* \"#utility.yul\":5491:5495   */\n      0x00\n        /* \"#utility.yul\":5529:5531   */\n      0x60\n        /* \"#utility.yul\":5518:5527   */\n      dup3\n        /* \"#utility.yul\":5514:5532   */\n      add\n        /* \"#utility.yul\":5506:5532   */\n      swap1\n      pop\n        /* \"#utility.yul\":5542:5613   */\n      tag_170\n        /* \"#utility.yul\":5610:5611   */\n      0x00\n        /* \"#utility.yul\":5599:5608   */\n      dup4\n        /* \"#utility.yul\":5595:5612   */\n      add\n        /* \"#utility.yul\":5586:5592   */\n      dup7\n        /* \"#utility.yul\":5542:5613   */\n      tag_100\n      jump\t// in\n    tag_170:\n        /* \"#utility.yul\":5623:5695   */\n      tag_171\n        /* \"#utility.yul\":5691:5693   */\n      0x20\n        /* \"#utility.yul\":5680:5689   */\n      dup4\n        /* \"#utility.yul\":5676:5694   */\n      add\n        /* \"#utility.yul\":5667:5673   */\n      dup6\n        /* \"#utility.yul\":5623:5695   */\n      tag_100\n      jump\t// in\n    tag_171:\n        /* \"#utility.yul\":5705:5777   */\n      tag_172\n        /* \"#utility.yul\":5773:5775   */\n      0x40\n        /* \"#utility.yul\":5762:5771   */\n      dup4\n        /* \"#utility.yul\":5758:5776   */\n      add\n        /* \"#utility.yul\":5749:5755   */\n      dup5\n        /* \"#utility.yul\":5705:5777   */\n      tag_101\n      jump\t// in\n    tag_172:\n        /* \"#utility.yul\":5342:5784   */\n      swap5\n      swap4\n      pop\n      pop\n      pop\n      pop\n      jump\t// out\n        /* \"#utility.yul\":5790:6012   */\n    tag_72:\n        /* \"#utility.yul\":5883:5887   */\n      0x00\n        /* \"#utility.yul\":5921:5923   */\n      0x20\n        /* \"#utility.yul\":5910:5919   */\n      dup3\n        /* \"#utility.yul\":5906:5924   */\n      add\n        /* \"#utility.yul\":5898:5924   */\n      swap1\n      pop\n        /* \"#utility.yul\":5934:6005   */\n      tag_174\n        /* \"#utility.yul\":6002:6003   */\n      0x00\n        /* \"#utility.yul\":5991:6000   */\n      dup4\n        /* \"#utility.yul\":5987:6004   */\n      add\n        /* \"#utility.yul\":5978:5984   */\n      dup5\n        /* \"#utility.yul\":5934:6005   */\n      tag_101\n      jump\t// in\n    tag_174:\n        /* \"#utility.yul\":5790:6012   */\n      swap3\n      swap2\n      pop\n      pop\n      jump\t// out\n\n    auxdata: 0xa2646970667358221220dbf9c05cb32a7a51af398938fe40f47d394dbb2216b8eece2fd6c180b6401e0464736f6c634300081e0033\n}\n",
				"bytecode": {
					"linkReferences": {},
					"object": "60a060405234801561000f575f5ffd5b50604051610b57380380610b578339818101604052810190610031919061014d565b60015f819055508160015f8573ffffffffffffffffffffffffffffffffffffffff1673ffffffffffffffffffffffffffffffffffffffff1681526020019081526020015f205f6101000a81548173ffffffffffffffffffffffffffffffffffffffff021916908373ffffffffffffffffffffffffffffffffffffffff1602179055508073ffffffffffffffffffffffffffffffffffffffff1660808173ffffffffffffffffffffffffffffffffffffffff168152505050505061019d565b5f5ffd5b5f73ffffffffffffffffffffffffffffffffffffffff82169050919050565b5f61011c826100f3565b9050919050565b61012c81610112565b8114610136575f5ffd5b50565b5f8151905061014781610123565b92915050565b5f5f5f60608486031215610164576101636100ef565b5b5f61017186828701610139565b935050602061018286828701610139565b925050604061019386828701610139565b9150509250925092565b60805161099b6101bc5f395f818161048f015261056e015261099b5ff3fe608060405234801561000f575f5ffd5b5060043610610055575f3560e01c806328a0702514610059578063670a14ea146100635780639268297f1461007f578063a5f352b71461009b578063b91d1c91146100a5575b5f5ffd5b6100616100c1565b005b61007d600480360381019061007891906106d9565b6100c3565b005b61009960048036038101906100949190610717565b61011d565b005b6100a3610145565b005b6100bf60048036038101906100ba9190610717565b610147565b005b565b6100cb610162565b805f8103610105576040517f77290a1d00000000000000000000000000000000000000000000000000000000815260040160405180910390fd5b6101108383336101af565b506101196102bd565b5050565b610125610162565b61012f83836102c6565b6101388161043a565b6101406102bd565b505050565b565b610152813333610518565b61015d8383336101af565b505050565b60025f54036101a6576040517f08c379a000000000000000000000000000000000000000000000000000000000815260040161019d906107c1565b60405180910390fd5b60025f81905550565b8160025f3373ffffffffffffffffffffffffffffffffffffffff1673ffffffffffffffffffffffffffffffffffffffff1681526020019081526020015f205f8282546101fb919061080c565b925050819055505f8373ffffffffffffffffffffffffffffffffffffffff1663a9059cbb83856040518363ffffffff1660e01b815260040161023e92919061085d565b6020604051808303815f875af115801561025a573d5f5f3e3d5ffd5b505050506040513d601f19601f8201168201806040525081019061027e91906108b9565b9050806102b7576040517f68171d3300000000000000000000000000000000000000000000000000000000815260040160405180910390fd5b50505050565b60015f81905550565b8060025f3373ffffffffffffffffffffffffffffffffffffffff1673ffffffffffffffffffffffffffffffffffffffff1681526020019081526020015f205f82825461031291906108e4565b925050819055505f8273ffffffffffffffffffffffffffffffffffffffff166323b872dd3330856040518463ffffffff1660e01b815260040161035793929190610917565b6020604051808303815f875af1158015610373573d5f5f3e3d5ffd5b505050506040513d601f19601f8201168201806040525081019061039791906108b9565b9050806103d0576040517f27e85e4c00000000000000000000000000000000000000000000000000000000815260040160405180910390fd5b8273ffffffffffffffffffffffffffffffffffffffff163373ffffffffffffffffffffffffffffffffffffffff167f5285b574be509117ddacaa5a2d92a4b3e23f805547f65b5b77de327acd17506e8460405161042d919061094c565b60405180910390a3505050565b8060035f3373ffffffffffffffffffffffffffffffffffffffff1673ffffffffffffffffffffffffffffffffffffffff1681526020019081526020015f205f82825461048691906108e4565b925050819055507f000000000000000000000000000000000000000000000000000000000000000073ffffffffffffffffffffffffffffffffffffffff166340c10f1933836040518363ffffffff1660e01b81526004016104e892919061085d565b5f604051808303815f87803b1580156104ff575f5ffd5b505af1158015610511573d5f5f3e3d5ffd5b5050505050565b8260035f8473ffffffffffffffffffffffffffffffffffffffff1673ffffffffffffffffffffffffffffffffffffffff1681526020019081526020015f205f828254610564919061080c565b925050819055505f7f000000000000000000000000000000000000000000000000000000000000000073ffffffffffffffffffffffffffffffffffffffff166323b872dd8330876040518463ffffffff1660e01b81526004016105c993929190610917565b6020604051808303815f875af11580156105e5573d5f5f3e3d5ffd5b505050506040513d601f19601f8201168201806040525081019061060991906108b9565b905080610642576040517f778c23f200000000000000000000000000000000000000000000000000000000815260040160405180910390fd5b50505050565b5f5ffd5b5f73ffffffffffffffffffffffffffffffffffffffff82169050919050565b5f6106758261064c565b9050919050565b6106858161066b565b811461068f575f5ffd5b50565b5f813590506106a08161067c565b92915050565b5f819050919050565b6106b8816106a6565b81146106c2575f5ffd5b50565b5f813590506106d3816106af565b92915050565b5f5f604083850312156106ef576106ee610648565b5b5f6106fc85828601610692565b925050602061070d858286016106c5565b9150509250929050565b5f5f5f6060848603121561072e5761072d610648565b5b5f61073b86828701610692565b935050602061074c868287016106c5565b925050604061075d868287016106c5565b9150509250925092565b5f82825260208201905092915050565b7f5265656e7472616e637947756172643a207265656e7472616e742063616c6c005f82015250565b5f6107ab601f83610767565b91506107b682610777565b602082019050919050565b5f6020820190508181035f8301526107d88161079f565b9050919050565b7f4e487b71000000000000000000000000000000000000000000000000000000005f52601160045260245ffd5b5f610816826106a6565b9150610821836106a6565b9250828203905081811115610839576108386107df565b5b92915050565b6108488161066b565b82525050565b610857816106a6565b82525050565b5f6040820190506108705f83018561083f565b61087d602083018461084e565b9392505050565b5f8115159050919050565b61089881610884565b81146108a2575f5ffd5b50565b5f815190506108b38161088f565b92915050565b5f602082840312156108ce576108cd610648565b5b5f6108db848285016108a5565b91505092915050565b5f6108ee826106a6565b91506108f9836106a6565b9250828201905080821115610911576109106107df565b5b92915050565b5f60608201905061092a5f83018661083f565b610937602083018561083f565b610944604083018461084e565b949350505050565b5f60208201905061095f5f83018461084e565b9291505056fea2646970667358221220dbf9c05cb32a7a51af398938fe40f47d394dbb2216b8eece2fd6c180b6401e0464736f6c634300081e0033",
					"opcodes": "PUSH1 0xA0 PUSH1 0x40 MSTORE CALLVALUE DUP1 ISZERO PUSH2 0xF JUMPI PUSH0 PUSH0 REVERT JUMPDEST POP PUSH1 0x40 MLOAD PUSH2 0xB57 CODESIZE SUB DUP1 PUSH2 0xB57 DUP4 CODECOPY DUP2 DUP2 ADD PUSH1 0x40 MSTORE DUP2 ADD SWAP1 PUSH2 0x31 SWAP2 SWAP1 PUSH2 0x14D JUMP JUMPDEST PUSH1 0x1 PUSH0 DUP2 SWAP1 SSTORE POP DUP2 PUSH1 0x1 PUSH0 DUP6 PUSH20 0xFFFFFFFFFFFFFFFFFFFFFFFFFFFFFFFFFFFFFFFF AND PUSH20 0xFFFFFFFFFFFFFFFFFFFFFFFFFFFFFFFFFFFFFFFF AND DUP2 MSTORE PUSH1 0x20 ADD SWAP1 DUP2 MSTORE PUSH1 0x20 ADD PUSH0 KECCAK256 PUSH0 PUSH2 0x100 EXP DUP2 SLOAD DUP2 PUSH20 0xFFFFFFFFFFFFFFFFFFFFFFFFFFFFFFFFFFFFFFFF MUL NOT AND SWAP1 DUP4 PUSH20 0xFFFFFFFFFFFFFFFFFFFFFFFFFFFFFFFFFFFFFFFF AND MUL OR SWAP1 SSTORE POP DUP1 PUSH20 0xFFFFFFFFFFFFFFFFFFFFFFFFFFFFFFFFFFFFFFFF AND PUSH1 0x80 DUP2 PUSH20 0xFFFFFFFFFFFFFFFFFFFFFFFFFFFFFFFFFFFFFFFF AND DUP2 MSTORE POP POP POP POP POP PUSH2 0x19D JUMP JUMPDEST PUSH0 PUSH0 REVERT JUMPDEST PUSH0 PUSH20 0xFFFFFFFFFFFFFFFFFFFFFFFFFFFFFFFFFFFFFFFF DUP3 AND SWAP1 POP SWAP2 SWAP1 POP JUMP JUMPDEST PUSH0 PUSH2 0x11C DUP3 PUSH2 0xF3 JUMP JUMPDEST SWAP1 POP SWAP2 SWAP1 POP JUMP JUMPDEST PUSH2 0x12C DUP2 PUSH2 0x112 JUMP JUMPDEST DUP2 EQ PUSH2 0x136 JUMPI PUSH0 PUSH0 REVERT JUMPDEST POP JUMP JUMPDEST PUSH0 DUP2 MLOAD SWAP1 POP PUSH2 0x147 DUP2 PUSH2 0x123 JUMP JUMPDEST SWAP3 SWAP2 POP POP JUMP JUMPDEST PUSH0 PUSH0 PUSH0 PUSH1 0x60 DUP5 DUP7 SUB SLT ISZERO PUSH2 0x164 JUMPI PUSH2 0x163 PUSH2 0xEF JUMP JUMPDEST JUMPDEST PUSH0 PUSH2 0x171 DUP7 DUP3 DUP8 ADD PUSH2 0x139 JUMP JUMPDEST SWAP4 POP POP PUSH1 0x20 PUSH2 0x182 DUP7 DUP3 DUP8 ADD PUSH2 0x139 JUMP JUMPDEST SWAP3 POP POP PUSH1 0x40 PUSH2 0x193 DUP7 DUP3 DUP8 ADD PUSH2 0x139 JUMP JUMPDEST SWAP2 POP POP SWAP3 POP SWAP3 POP SWAP3 JUMP JUMPDEST PUSH1 0x80 MLOAD PUSH2 0x99B PUSH2 0x1BC PUSH0 CODECOPY PUSH0 DUP2 DUP2 PUSH2 0x48F ADD MSTORE PUSH2 0x56E ADD MSTORE PUSH2 0x99B PUSH0 RETURN INVALID PUSH1 0x80 PUSH1 0x40 MSTORE CALLVALUE DUP1 ISZERO PUSH2 0xF JUMPI PUSH0 PUSH0 REVERT JUMPDEST POP PUSH1 0x4 CALLDATASIZE LT PUSH2 0x55 JUMPI PUSH0 CALLDATALOAD PUSH1 0xE0 SHR DUP1 PUSH4 0x28A07025 EQ PUSH2 0x59 JUMPI DUP1 PUSH4 0x670A14EA EQ PUSH2 0x63 JUMPI DUP1 PUSH4 0x9268297F EQ PUSH2 0x7F JUMPI DUP1 PUSH4 0xA5F352B7 EQ PUSH2 0x9B JUMPI DUP1 PUSH4 0xB91D1C91 EQ PUSH2 0xA5 JUMPI JUMPDEST PUSH0 PUSH0 REVERT JUMPDEST PUSH2 0x61 PUSH2 0xC1 JUMP JUMPDEST STOP JUMPDEST PUSH2 0x7D PUSH1 0x4 DUP1 CALLDATASIZE SUB DUP2 ADD SWAP1 PUSH2 0x78 SWAP2 SWAP1 PUSH2 0x6D9 JUMP JUMPDEST PUSH2 0xC3 JUMP JUMPDEST STOP JUMPDEST PUSH2 0x99 PUSH1 0x4 DUP1 CALLDATASIZE SUB DUP2 ADD SWAP1 PUSH2 0x94 SWAP2 SWAP1 PUSH2 0x717 JUMP JUMPDEST PUSH2 0x11D JUMP JUMPDEST STOP JUMPDEST PUSH2 0xA3 PUSH2 0x145 JUMP JUMPDEST STOP JUMPDEST PUSH2 0xBF PUSH1 0x4 DUP1 CALLDATASIZE SUB DUP2 ADD SWAP1 PUSH2 0xBA SWAP2 SWAP1 PUSH2 0x717 JUMP JUMPDEST PUSH2 0x147 JUMP JUMPDEST STOP JUMPDEST JUMP JUMPDEST PUSH2 0xCB PUSH2 0x162 JUMP JUMPDEST DUP1 PUSH0 DUP2 SUB PUSH2 0x105 JUMPI PUSH1 0x40 MLOAD PUSH32 0x77290A1D00000000000000000000000000000000000000000000000000000000 DUP2 MSTORE PUSH1 0x4 ADD PUSH1 0x40 MLOAD DUP1 SWAP2 SUB SWAP1 REVERT JUMPDEST PUSH2 0x110 DUP4 DUP4 CALLER PUSH2 0x1AF JUMP JUMPDEST POP PUSH2 0x119 PUSH2 0x2BD JUMP JUMPDEST POP POP JUMP JUMPDEST PUSH2 0x125 PUSH2 0x162 JUMP JUMPDEST PUSH2 0x12F DUP4 DUP4 PUSH2 0x2C6 JUMP JUMPDEST PUSH2 0x138 DUP2 PUSH2 0x43A JUMP JUMPDEST PUSH2 0x140 PUSH2 0x2BD JUMP JUMPDEST POP POP POP JUMP JUMPDEST JUMP JUMPDEST PUSH2 0x152 DUP2 CALLER CALLER PUSH2 0x518 JUMP JUMPDEST PUSH2 0x15D DUP4 DUP4 CALLER PUSH2 0x1AF JUMP JUMPDEST POP POP POP JUMP JUMPDEST PUSH1 0x2 PUSH0 SLOAD SUB PUSH2 0x1A6 JUMPI PUSH1 0x40 MLOAD PUSH32 0x8C379A000000000000000000000000000000000000000000000000000000000 DUP2 MSTORE PUSH1 0x4 ADD PUSH2 0x19D SWAP1 PUSH2 0x7C1 JUMP JUMPDEST PUSH1 0x40 MLOAD DUP1 SWAP2 SUB SWAP1 REVERT JUMPDEST PUSH1 0x2 PUSH0 DUP2 SWAP1 SSTORE POP JUMP JUMPDEST DUP2 PUSH1 0x2 PUSH0 CALLER PUSH20 0xFFFFFFFFFFFFFFFFFFFFFFFFFFFFFFFFFFFFFFFF AND PUSH20 0xFFFFFFFFFFFFFFFFFFFFFFFFFFFFFFFFFFFFFFFF AND DUP2 MSTORE PUSH1 0x20 ADD SWAP1 DUP2 MSTORE PUSH1 0x20 ADD PUSH0 KECCAK256 PUSH0 DUP3 DUP3 SLOAD PUSH2 0x1FB SWAP2 SWAP1 PUSH2 0x80C JUMP JUMPDEST SWAP3 POP POP DUP2 SWAP1 SSTORE POP PUSH0 DUP4 PUSH20 0xFFFFFFFFFFFFFFFFFFFFFFFFFFFFFFFFFFFFFFFF AND PUSH4 0xA9059CBB DUP4 DUP6 PUSH1 0x40 MLOAD DUP4 PUSH4 0xFFFFFFFF AND PUSH1 0xE0 SHL DUP2 MSTORE PUSH1 0x4 ADD PUSH2 0x23E SWAP3 SWAP2 SWAP1 PUSH2 0x85D JUMP JUMPDEST PUSH1 0x20 PUSH1 0x40 MLOAD DUP1 DUP4 SUB DUP2 PUSH0 DUP8 GAS CALL ISZERO DUP1 ISZERO PUSH2 0x25A JUMPI RETURNDATASIZE PUSH0 PUSH0 RETURNDATACOPY RETURNDATASIZE PUSH0 REVERT JUMPDEST POP POP POP POP PUSH1 0x40 MLOAD RETURNDATASIZE PUSH1 0x1F NOT PUSH1 0x1F DUP3 ADD AND DUP3 ADD DUP1 PUSH1 0x40 MSTORE POP DUP2 ADD SWAP1 PUSH2 0x27E SWAP2 SWAP1 PUSH2 0x8B9 JUMP JUMPDEST SWAP1 POP DUP1 PUSH2 0x2B7 JUMPI PUSH1 0x40 MLOAD PUSH32 0x68171D3300000000000000000000000000000000000000000000000000000000 DUP2 MSTORE PUSH1 0x4 ADD PUSH1 0x40 MLOAD DUP1 SWAP2 SUB SWAP1 REVERT JUMPDEST POP POP POP POP JUMP JUMPDEST PUSH1 0x1 PUSH0 DUP2 SWAP1 SSTORE POP JUMP JUMPDEST DUP1 PUSH1 0x2 PUSH0 CALLER PUSH20 0xFFFFFFFFFFFFFFFFFFFFFFFFFFFFFFFFFFFFFFFF AND PUSH20 0xFFFFFFFFFFFFFFFFFFFFFFFFFFFFFFFFFFFFFFFF AND DUP2 MSTORE PUSH1 0x20 ADD SWAP1 DUP2 MSTORE PUSH1 0x20 ADD PUSH0 KECCAK256 PUSH0 DUP3 DUP3 SLOAD PUSH2 0x312 SWAP2 SWAP1 PUSH2 0x8E4 JUMP JUMPDEST SWAP3 POP POP DUP2 SWAP1 SSTORE POP PUSH0 DUP3 PUSH20 0xFFFFFFFFFFFFFFFFFFFFFFFFFFFFFFFFFFFFFFFF AND PUSH4 0x23B872DD CALLER ADDRESS DUP6 PUSH1 0x40 MLOAD DUP5 PUSH4 0xFFFFFFFF AND PUSH1 0xE0 SHL DUP2 MSTORE PUSH1 0x4 ADD PUSH2 0x357 SWAP4 SWAP3 SWAP2 SWAP1 PUSH2 0x917 JUMP JUMPDEST PUSH1 0x20 PUSH1 0x40 MLOAD DUP1 DUP4 SUB DUP2 PUSH0 DUP8 GAS CALL ISZERO DUP1 ISZERO PUSH2 0x373 JUMPI RETURNDATASIZE PUSH0 PUSH0 RETURNDATACOPY RETURNDATASIZE PUSH0 REVERT JUMPDEST POP POP POP POP PUSH1 0x40 MLOAD RETURNDATASIZE PUSH1 0x1F NOT PUSH1 0x1F DUP3 ADD AND DUP3 ADD DUP1 PUSH1 0x40 MSTORE POP DUP2 ADD SWAP1 PUSH2 0x397 SWAP2 SWAP1 PUSH2 0x8B9 JUMP JUMPDEST SWAP1 POP DUP1 PUSH2 0x3D0 JUMPI PUSH1 0x40 MLOAD PUSH32 0x27E85E4C00000000000000000000000000000000000000000000000000000000 DUP2 MSTORE PUSH1 0x4 ADD PUSH1 0x40 MLOAD DUP1 SWAP2 SUB SWAP1 REVERT JUMPDEST DUP3 PUSH20 0xFFFFFFFFFFFFFFFFFFFFFFFFFFFFFFFFFFFFFFFF AND CALLER PUSH20 0xFFFFFFFFFFFFFFFFFFFFFFFFFFFFFFFFFFFFFFFF AND PUSH32 0x5285B574BE509117DDACAA5A2D92A4B3E23F805547F65B5B77DE327ACD17506E DUP5 PUSH1 0x40 MLOAD PUSH2 0x42D SWAP2 SWAP1 PUSH2 0x94C JUMP JUMPDEST PUSH1 0x40 MLOAD DUP1 SWAP2 SUB SWAP1 LOG3 POP POP POP JUMP JUMPDEST DUP1 PUSH1 0x3 PUSH0 CALLER PUSH20 0xFFFFFFFFFFFFFFFFFFFFFFFFFFFFFFFFFFFFFFFF AND PUSH20 0xFFFFFFFFFFFFFFFFFFFFFFFFFFFFFFFFFFFFFFFF AND DUP2 MSTORE PUSH1 0x20 ADD SWAP1 DUP2 MSTORE PUSH1 0x20 ADD PUSH0 KECCAK256 PUSH0 DUP3 DUP3 SLOAD PUSH2 0x486 SWAP2 SWAP1 PUSH2 0x8E4 JUMP JUMPDEST SWAP3 POP POP DUP2 SWAP1 SSTORE POP PUSH32 0x0 PUSH20 0xFFFFFFFFFFFFFFFFFFFFFFFFFFFFFFFFFFFFFFFF AND PUSH4 0x40C10F19 CALLER DUP4 PUSH1 0x40 MLOAD DUP4 PUSH4 0xFFFFFFFF AND PUSH1 0xE0 SHL DUP2 MSTORE PUSH1 0x4 ADD PUSH2 0x4E8 SWAP3 SWAP2 SWAP1 PUSH2 0x85D JUMP JUMPDEST PUSH0 PUSH1 0x40 MLOAD DUP1 DUP4 SUB DUP2 PUSH0 DUP8 DUP1 EXTCODESIZE ISZERO DUP1 ISZERO PUSH2 0x4FF JUMPI PUSH0 PUSH0 REVERT JUMPDEST POP GAS CALL ISZERO DUP1 ISZERO PUSH2 0x511 JUMPI RETURNDATASIZE PUSH0 PUSH0 RETURNDATACOPY RETURNDATASIZE PUSH0 REVERT JUMPDEST POP POP POP POP POP JUMP JUMPDEST DUP3 PUSH1 0x3 PUSH0 DUP5 PUSH20 0xFFFFFFFFFFFFFFFFFFFFFFFFFFFFFFFFFFFFFFFF AND PUSH20 0xFFFFFFFFFFFFFFFFFFFFFFFFFFFFFFFFFFFFFFFF AND DUP2 MSTORE PUSH1 0x20 ADD SWAP1 DUP2 MSTORE PUSH1 0x20 ADD PUSH0 KECCAK256 PUSH0 DUP3 DUP3 SLOAD PUSH2 0x564 SWAP2 SWAP1 PUSH2 0x80C JUMP JUMPDEST SWAP3 POP POP DUP2 SWAP1 SSTORE POP PUSH0 PUSH32 0x0 PUSH20 0xFFFFFFFFFFFFFFFFFFFFFFFFFFFFFFFFFFFFFFFF AND PUSH4 0x23B872DD DUP4 ADDRESS DUP8 PUSH1 0x40 MLOAD DUP5 PUSH4 0xFFFFFFFF AND PUSH1 0xE0 SHL DUP2 MSTORE PUSH1 0x4 ADD PUSH2 0x5C9 SWAP4 SWAP3 SWAP2 SWAP1 PUSH2 0x917 JUMP JUMPDEST PUSH1 0x20 PUSH1 0x40 MLOAD DUP1 DUP4 SUB DUP2 PUSH0 DUP8 GAS CALL ISZERO DUP1 ISZERO PUSH2 0x5E5 JUMPI RETURNDATASIZE PUSH0 PUSH0 RETURNDATACOPY RETURNDATASIZE PUSH0 REVERT JUMPDEST POP POP POP POP PUSH1 0x40 MLOAD RETURNDATASIZE PUSH1 0x1F NOT PUSH1 0x1F DUP3 ADD AND DUP3 ADD DUP1 PUSH1 0x40 MSTORE POP DUP2 ADD SWAP1 PUSH2 0x609 SWAP2 SWAP1 PUSH2 0x8B9 JUMP JUMPDEST SWAP1 POP DUP1 PUSH2 0x642 JUMPI PUSH1 0x40 MLOAD PUSH32 0x778C23F200000000000000000000000000000000000000000000000000000000 DUP2 MSTORE PUSH1 0x4 ADD PUSH1 0x40 MLOAD DUP1 SWAP2 SUB SWAP1 REVERT JUMPDEST POP POP POP POP JUMP JUMPDEST PUSH0 PUSH0 REVERT JUMPDEST PUSH0 PUSH20 0xFFFFFFFFFFFFFFFFFFFFFFFFFFFFFFFFFFFFFFFF DUP3 AND SWAP1 POP SWAP2 SWAP1 POP JUMP JUMPDEST PUSH0 PUSH2 0x675 DUP3 PUSH2 0x64C JUMP JUMPDEST SWAP1 POP SWAP2 SWAP1 POP JUMP JUMPDEST PUSH2 0x685 DUP2 PUSH2 0x66B JUMP JUMPDEST DUP2 EQ PUSH2 0x68F JUMPI PUSH0 PUSH0 REVERT JUMPDEST POP JUMP JUMPDEST PUSH0 DUP2 CALLDATALOAD SWAP1 POP PUSH2 0x6A0 DUP2 PUSH2 0x67C JUMP JUMPDEST SWAP3 SWAP2 POP POP JUMP JUMPDEST PUSH0 DUP2 SWAP1 POP SWAP2 SWAP1 POP JUMP JUMPDEST PUSH2 0x6B8 DUP2 PUSH2 0x6A6 JUMP JUMPDEST DUP2 EQ PUSH2 0x6C2 JUMPI PUSH0 PUSH0 REVERT JUMPDEST POP JUMP JUMPDEST PUSH0 DUP2 CALLDATALOAD SWAP1 POP PUSH2 0x6D3 DUP2 PUSH2 0x6AF JUMP JUMPDEST SWAP3 SWAP2 POP POP JUMP JUMPDEST PUSH0 PUSH0 PUSH1 0x40 DUP4 DUP6 SUB SLT ISZERO PUSH2 0x6EF JUMPI PUSH2 0x6EE PUSH2 0x648 JUMP JUMPDEST JUMPDEST PUSH0 PUSH2 0x6FC DUP6 DUP3 DUP7 ADD PUSH2 0x692 JUMP JUMPDEST SWAP3 POP POP PUSH1 0x20 PUSH2 0x70D DUP6 DUP3 DUP7 ADD PUSH2 0x6C5 JUMP JUMPDEST SWAP2 POP POP SWAP3 POP SWAP3 SWAP1 POP JUMP JUMPDEST PUSH0 PUSH0 PUSH0 PUSH1 0x60 DUP5 DUP7 SUB SLT ISZERO PUSH2 0x72E JUMPI PUSH2 0x72D PUSH2 0x648 JUMP JUMPDEST JUMPDEST PUSH0 PUSH2 0x73B DUP7 DUP3 DUP8 ADD PUSH2 0x692 JUMP JUMPDEST SWAP4 POP POP PUSH1 0x20 PUSH2 0x74C DUP7 DUP3 DUP8 ADD PUSH2 0x6C5 JUMP JUMPDEST SWAP3 POP POP PUSH1 0x40 PUSH2 0x75D DUP7 DUP3 DUP8 ADD PUSH2 0x6C5 JUMP JUMPDEST SWAP2 POP POP SWAP3 POP SWAP3 POP SWAP3 JUMP JUMPDEST PUSH0 DUP3 DUP3 MSTORE PUSH1 0x20 DUP3 ADD SWAP1 POP SWAP3 SWAP2 POP POP JUMP JUMPDEST PUSH32 0x5265656E7472616E637947756172643A207265656E7472616E742063616C6C00 PUSH0 DUP3 ADD MSTORE POP JUMP JUMPDEST PUSH0 PUSH2 0x7AB PUSH1 0x1F DUP4 PUSH2 0x767 JUMP JUMPDEST SWAP2 POP PUSH2 0x7B6 DUP3 PUSH2 0x777 JUMP JUMPDEST PUSH1 0x20 DUP3 ADD SWAP1 POP SWAP2 SWAP1 POP JUMP JUMPDEST PUSH0 PUSH1 0x20 DUP3 ADD SWAP1 POP DUP2 DUP2 SUB PUSH0 DUP4 ADD MSTORE PUSH2 0x7D8 DUP2 PUSH2 0x79F JUMP JUMPDEST SWAP1 POP SWAP2 SWAP1 POP JUMP JUMPDEST PUSH32 0x4E487B7100000000000000000000000000000000000000000000000000000000 PUSH0 MSTORE PUSH1 0x11 PUSH1 0x4 MSTORE PUSH1 0x24 PUSH0 REVERT JUMPDEST PUSH0 PUSH2 0x816 DUP3 PUSH2 0x6A6 JUMP JUMPDEST SWAP2 POP PUSH2 0x821 DUP4 PUSH2 0x6A6 JUMP JUMPDEST SWAP3 POP DUP3 DUP3 SUB SWAP1 POP DUP2 DUP2 GT ISZERO PUSH2 0x839 JUMPI PUSH2 0x838 PUSH2 0x7DF JUMP JUMPDEST JUMPDEST SWAP3 SWAP2 POP POP JUMP JUMPDEST PUSH2 0x848 DUP2 PUSH2 0x66B JUMP JUMPDEST DUP3 MSTORE POP POP JUMP JUMPDEST PUSH2 0x857 DUP2 PUSH2 0x6A6 JUMP JUMPDEST DUP3 MSTORE POP POP JUMP JUMPDEST PUSH0 PUSH1 0x40 DUP3 ADD SWAP1 POP PUSH2 0x870 PUSH0 DUP4 ADD DUP6 PUSH2 0x83F JUMP JUMPDEST PUSH2 0x87D PUSH1 0x20 DUP4 ADD DUP5 PUSH2 0x84E JUMP JUMPDEST SWAP4 SWAP3 POP POP POP JUMP JUMPDEST PUSH0 DUP2 ISZERO ISZERO SWAP1 POP SWAP2 SWAP1 POP JUMP JUMPDEST PUSH2 0x898 DUP2 PUSH2 0x884 JUMP JUMPDEST DUP2 EQ PUSH2 0x8A2 JUMPI PUSH0 PUSH0 REVERT JUMPDEST POP JUMP JUMPDEST PUSH0 DUP2 MLOAD SWAP1 POP PUSH2 0x8B3 DUP2 PUSH2 0x88F JUMP JUMPDEST SWAP3 SWAP2 POP POP JUMP JUMPDEST PUSH0 PUSH1 0x20 DUP3 DUP5 SUB SLT ISZERO PUSH2 0x8CE JUMPI PUSH2 0x8CD PUSH2 0x648 JUMP JUMPDEST JUMPDEST PUSH0 PUSH2 0x8DB DUP5 DUP3 DUP6 ADD PUSH2 0x8A5 JUMP JUMPDEST SWAP2 POP POP SWAP3 SWAP2 POP POP JUMP JUMPDEST PUSH0 PUSH2 0x8EE DUP3 PUSH2 0x6A6 JUMP JUMPDEST SWAP2 POP PUSH2 0x8F9 DUP4 PUSH2 0x6A6 JUMP JUMPDEST SWAP3 POP DUP3 DUP3 ADD SWAP1 POP DUP1 DUP3 GT ISZERO PUSH2 0x911 JUMPI PUSH2 0x910 PUSH2 0x7DF JUMP JUMPDEST JUMPDEST SWAP3 SWAP2 POP POP JUMP JUMPDEST PUSH0 PUSH1 0x60 DUP3 ADD SWAP1 POP PUSH2 0x92A PUSH0 DUP4 ADD DUP7 PUSH2 0x83F JUMP JUMPDEST PUSH2 0x937 PUSH1 0x20 DUP4 ADD DUP6 PUSH2 0x83F JUMP JUMPDEST PUSH2 0x944 PUSH1 0x40 DUP4 ADD DUP5 PUSH2 0x84E JUMP JUMPDEST SWAP5 SWAP4 POP POP POP POP JUMP JUMPDEST PUSH0 PUSH1 0x20 DUP3 ADD SWAP1 POP PUSH2 0x95F PUSH0 DUP4 ADD DUP5 PUSH2 0x84E JUMP JUMPDEST SWAP3 SWAP2 POP POP JUMP INVALID LOG2 PUSH5 0x6970667358 0x22 SLT KECCAK256 0xDB EXTDELEGATECALL 0xC0 TLOAD 0xB3 0x2A PUSH27 0x51AF398938FE40F47D394DBB2216B8EECE2FD6C180B6401E046473 PUSH16 0x6C634300081E00330000000000000000 "
				},
				"gasEstimates": {
					"creation": {
						"codeDepositCost": "491800",
						"executionCost": "infinite",
						"totalCost": "infinite"
					},
					"external": {
						"depositeColletralMintNEX(address,uint256,uint256)": "infinite",
						"getHealthFactor()": "187",
						"liquidate()": "121",
						"redeemCollectral(address,uint256)": "infinite",
						"redeemColletralForNex(address,uint256,uint256)": "infinite"
					},
					"internal": {
						"_burnNEX(uint256,address,address)": "infinite",
						"_depositeCollateral(address,uint256)": "infinite",
						"_redeemCollateral(address,uint256,address)": "infinite",
						"mintNEX(uint256)": "infinite"
					}
				},
				"methodIdentifiers": {
					"depositeColletralMintNEX(address,uint256,uint256)": "9268297f",
					"getHealthFactor()": "a5f352b7",
					"liquidate()": "28a07025",
					"redeemCollectral(address,uint256)": "670a14ea",
					"redeemColletralForNex(address,uint256,uint256)": "b91d1c91"
				}
			},
			"storageLayout": {
				"storage": [
					{
						"astId": 295,
						"contract": "src/NEXEngine.sol:NEXEngine",
						"label": "_status",
						"offset": 0,
						"slot": "0",
						"type": "t_uint256"
					},
					{
						"astId": 1234,
						"contract": "src/NEXEngine.sol:NEXEngine",
						"label": "_priceFeeds",
						"offset": 0,
						"slot": "1",
						"type": "t_mapping(t_address,t_address)"
					},
					{
						"astId": 1238,
						"contract": "src/NEXEngine.sol:NEXEngine",
						"label": "_collateralDeposited",
						"offset": 0,
						"slot": "2",
						"type": "t_mapping(t_address,t_uint256)"
					},
					{
						"astId": 1242,
						"contract": "src/NEXEngine.sol:NEXEngine",
						"label": "s_NexMinted",
						"offset": 0,
						"slot": "3",
						"type": "t_mapping(t_address,t_uint256)"
					}
				],
				"types": {
					"t_address": {
						"encoding": "inplace",
						"label": "address",
						"numberOfBytes": "20"
					},
					"t_mapping(t_address,t_address)": {
						"encoding": "mapping",
						"key": "t_address",
						"label": "mapping(address => address)",
						"numberOfBytes": "32",
						"value": "t_address"
					},
					"t_mapping(t_address,t_uint256)": {
						"encoding": "mapping",
						"key": "t_address",
						"label": "mapping(address => uint256)",
						"numberOfBytes": "32",
						"value": "t_uint256"
					},
					"t_uint256": {
						"encoding": "inplace",
						"label": "uint256",
						"numberOfBytes": "32"
					}
				}
			},
			"userdoc": {
				"kind": "user",
				"methods": {},
				"notice": "NEX : Decentralized Stable Coin",
				"version": 1
			}
		}
	}
}